{
  "_format": "hh-sol-artifact-1",
  "contractName": "MyToken",
  "sourceName": "contracts/nft.sol",
  "abi": [
    {
      "inputs": [],
      "stateMutability": "nonpayable",
      "type": "constructor"
    },
    {
      "anonymous": false,
      "inputs": [
        {
          "indexed": true,
          "internalType": "address",
          "name": "owner",
          "type": "address"
        },
        {
          "indexed": true,
          "internalType": "address",
          "name": "approved",
          "type": "address"
        },
        {
          "indexed": true,
          "internalType": "uint256",
          "name": "tokenId",
          "type": "uint256"
        }
      ],
      "name": "Approval",
      "type": "event"
    },
    {
      "anonymous": false,
      "inputs": [
        {
          "indexed": true,
          "internalType": "address",
          "name": "owner",
          "type": "address"
        },
        {
          "indexed": true,
          "internalType": "address",
          "name": "operator",
          "type": "address"
        },
        {
          "indexed": false,
          "internalType": "bool",
          "name": "approved",
          "type": "bool"
        }
      ],
      "name": "ApprovalForAll",
      "type": "event"
    },
    {
      "anonymous": false,
      "inputs": [
        {
          "indexed": true,
          "internalType": "address",
          "name": "previousOwner",
          "type": "address"
        },
        {
          "indexed": true,
          "internalType": "address",
          "name": "newOwner",
          "type": "address"
        }
      ],
      "name": "OwnershipTransferred",
      "type": "event"
    },
    {
      "anonymous": false,
      "inputs": [
        {
          "indexed": true,
          "internalType": "address",
          "name": "from",
          "type": "address"
        },
        {
          "indexed": true,
          "internalType": "address",
          "name": "to",
          "type": "address"
        },
        {
          "indexed": true,
          "internalType": "uint256",
          "name": "tokenId",
          "type": "uint256"
        }
      ],
      "name": "Transfer",
      "type": "event"
    },
    {
      "inputs": [
        {
          "internalType": "address",
          "name": "to",
          "type": "address"
        },
        {
          "internalType": "uint256",
          "name": "tokenId",
          "type": "uint256"
        }
      ],
      "name": "approve",
      "outputs": [],
      "stateMutability": "nonpayable",
      "type": "function"
    },
    {
      "inputs": [
        {
          "internalType": "address",
          "name": "owner",
          "type": "address"
        }
      ],
      "name": "balanceOf",
      "outputs": [
        {
          "internalType": "uint256",
          "name": "",
          "type": "uint256"
        }
      ],
      "stateMutability": "view",
      "type": "function"
    },
    {
      "inputs": [
        {
          "internalType": "uint256",
          "name": "tokenId",
          "type": "uint256"
        }
      ],
      "name": "getApproved",
      "outputs": [
        {
          "internalType": "address",
          "name": "",
          "type": "address"
        }
      ],
      "stateMutability": "view",
      "type": "function"
    },
    {
      "inputs": [
        {
          "internalType": "address",
          "name": "owner",
          "type": "address"
        },
        {
          "internalType": "address",
          "name": "operator",
          "type": "address"
        }
      ],
      "name": "isApprovedForAll",
      "outputs": [
        {
          "internalType": "bool",
          "name": "",
          "type": "bool"
        }
      ],
      "stateMutability": "view",
      "type": "function"
    },
    {
      "inputs": [
        {
          "internalType": "string",
          "name": "uri",
          "type": "string"
        }
      ],
      "name": "isContentOwned",
      "outputs": [
        {
          "internalType": "bool",
          "name": "",
          "type": "bool"
        }
      ],
      "stateMutability": "view",
      "type": "function"
    },
    {
      "inputs": [
        {
          "internalType": "address",
          "name": "contractAddress",
          "type": "address"
        },
        {
          "internalType": "address",
          "name": "owner",
          "type": "address"
        }
      ],
      "name": "listUserNFTs",
      "outputs": [
        {
          "internalType": "uint256[]",
          "name": "",
          "type": "uint256[]"
        }
      ],
      "stateMutability": "view",
      "type": "function"
    },
    {
      "inputs": [],
      "name": "name",
      "outputs": [
        {
          "internalType": "string",
          "name": "",
          "type": "string"
        }
      ],
      "stateMutability": "view",
      "type": "function"
    },
    {
      "inputs": [],
      "name": "owner",
      "outputs": [
        {
          "internalType": "address",
          "name": "",
          "type": "address"
        }
      ],
      "stateMutability": "view",
      "type": "function"
    },
    {
      "inputs": [
        {
          "internalType": "uint256",
          "name": "tokenId",
          "type": "uint256"
        }
      ],
      "name": "ownerOf",
      "outputs": [
        {
          "internalType": "address",
          "name": "",
          "type": "address"
        }
      ],
      "stateMutability": "view",
      "type": "function"
    },
    {
      "inputs": [
        {
          "internalType": "address",
          "name": "recipient",
          "type": "address"
        },
        {
          "internalType": "string",
          "name": "metadataURI",
          "type": "string"
        }
      ],
      "name": "payToMint",
      "outputs": [
        {
          "internalType": "uint256",
          "name": "",
          "type": "uint256"
        }
      ],
      "stateMutability": "payable",
      "type": "function"
    },
    {
      "inputs": [],
      "name": "renounceOwnership",
      "outputs": [],
      "stateMutability": "nonpayable",
      "type": "function"
    },
    {
      "inputs": [
        {
          "internalType": "address",
          "name": "to",
          "type": "address"
        },
        {
          "internalType": "string",
          "name": "uri",
          "type": "string"
        }
      ],
      "name": "safeMint",
      "outputs": [],
      "stateMutability": "nonpayable",
      "type": "function"
    },
    {
      "inputs": [
        {
          "internalType": "address",
          "name": "from",
          "type": "address"
        },
        {
          "internalType": "address",
          "name": "to",
          "type": "address"
        },
        {
          "internalType": "uint256",
          "name": "tokenId",
          "type": "uint256"
        }
      ],
      "name": "safeTransferFrom",
      "outputs": [],
      "stateMutability": "nonpayable",
      "type": "function"
    },
    {
      "inputs": [
        {
          "internalType": "address",
          "name": "from",
          "type": "address"
        },
        {
          "internalType": "address",
          "name": "to",
          "type": "address"
        },
        {
          "internalType": "uint256",
          "name": "tokenId",
          "type": "uint256"
        },
        {
          "internalType": "bytes",
          "name": "_data",
          "type": "bytes"
        }
      ],
      "name": "safeTransferFrom",
      "outputs": [],
      "stateMutability": "nonpayable",
      "type": "function"
    },
    {
      "inputs": [
        {
          "internalType": "address",
          "name": "operator",
          "type": "address"
        },
        {
          "internalType": "bool",
          "name": "approved",
          "type": "bool"
        }
      ],
      "name": "setApprovalForAll",
      "outputs": [],
      "stateMutability": "nonpayable",
      "type": "function"
    },
    {
      "inputs": [
        {
          "internalType": "bytes4",
          "name": "interfaceId",
          "type": "bytes4"
        }
      ],
      "name": "supportsInterface",
      "outputs": [
        {
          "internalType": "bool",
          "name": "",
          "type": "bool"
        }
      ],
      "stateMutability": "view",
      "type": "function"
    },
    {
      "inputs": [],
      "name": "symbol",
      "outputs": [
        {
          "internalType": "string",
          "name": "",
          "type": "string"
        }
      ],
      "stateMutability": "view",
      "type": "function"
    },
    {
      "inputs": [
        {
          "internalType": "uint256",
          "name": "index",
          "type": "uint256"
        }
      ],
      "name": "tokenByIndex",
      "outputs": [
        {
          "internalType": "uint256",
          "name": "",
          "type": "uint256"
        }
      ],
      "stateMutability": "view",
      "type": "function"
    },
    {
      "inputs": [
        {
          "internalType": "address",
          "name": "owner",
          "type": "address"
        },
        {
          "internalType": "uint256",
          "name": "index",
          "type": "uint256"
        }
      ],
      "name": "tokenOfOwnerByIndex",
      "outputs": [
        {
          "internalType": "uint256",
          "name": "",
          "type": "uint256"
        }
      ],
      "stateMutability": "view",
      "type": "function"
    },
    {
      "inputs": [
        {
          "internalType": "uint256",
          "name": "tokenId",
          "type": "uint256"
        }
      ],
      "name": "tokenURI",
      "outputs": [
        {
          "internalType": "string",
          "name": "",
          "type": "string"
        }
      ],
      "stateMutability": "view",
      "type": "function"
    },
    {
      "inputs": [],
      "name": "totalSupply",
      "outputs": [
        {
          "internalType": "uint256",
          "name": "",
          "type": "uint256"
        }
      ],
      "stateMutability": "view",
      "type": "function"
    },
    {
      "inputs": [
        {
          "internalType": "address",
          "name": "from",
          "type": "address"
        },
        {
          "internalType": "address",
          "name": "to",
          "type": "address"
        },
        {
          "internalType": "uint256",
          "name": "tokenId",
          "type": "uint256"
        }
      ],
      "name": "transferFrom",
      "outputs": [],
      "stateMutability": "nonpayable",
      "type": "function"
    },
    {
      "inputs": [
        {
          "internalType": "address",
          "name": "newOwner",
          "type": "address"
        }
      ],
      "name": "transferOwnership",
      "outputs": [],
      "stateMutability": "nonpayable",
      "type": "function"
    }
  ],
  "bytecode": "0x60806040523480156200001157600080fd5b506040518060400160405280600781526020017f4d79546f6b656e000000000000000000000000000000000000000000000000008152506040518060400160405280600381526020017f4142430000000000000000000000000000000000000000000000000000000000815250816000908051906020019062000096929190620001a6565b508060019080519060200190620000af929190620001a6565b505050620000d2620000c6620000d860201b60201c565b620000e060201b60201c565b620002bb565b600033905090565b6000600760009054906101000a900473ffffffffffffffffffffffffffffffffffffffff16905081600760006101000a81548173ffffffffffffffffffffffffffffffffffffffff021916908373ffffffffffffffffffffffffffffffffffffffff1602179055508173ffffffffffffffffffffffffffffffffffffffff168173ffffffffffffffffffffffffffffffffffffffff167f8be0079c531659141344cd1fd0a4f28419497f9722a3daafe3b4186f6b6457e060405160405180910390a35050565b828054620001b49062000256565b90600052602060002090601f016020900481019282620001d8576000855562000224565b82601f10620001f357805160ff191683800117855562000224565b8280016001018555821562000224579182015b828111156200022357825182559160200191906001019062000206565b5b50905062000233919062000237565b5090565b5b808211156200025257600081600090555060010162000238565b5090565b600060028204905060018216806200026f57607f821691505b602082108114156200028657620002856200028c565b5b50919050565b7f4e487b7100000000000000000000000000000000000000000000000000000000600052602260045260246000fd5b613ec980620002cb6000396000f3fe6080604052600436106101405760003560e01c806370a08231116100b6578063a22cb4651161006f578063a22cb4651461049b578063b88d4fde146104c4578063c87b56dd146104ed578063d204c45e1461052a578063e985e9c514610553578063f2fde38b1461059057610140565b806370a0823114610377578063715018a6146103b45780638da5cb5b146103cb57806395d89b41146103f65780639ae01292146104215780639f1cabc61461045e57610140565b806323b872dd1161010857806323b872dd1461023e5780632f745c591461026757806342842e0e146102a45780634f6ccce7146102cd578063615fd9e21461030a5780636352211e1461033a57610140565b806301ffc9a71461014557806306fdde0314610182578063081812fc146101ad578063095ea7b3146101ea57806318160ddd14610213575b600080fd5b34801561015157600080fd5b5061016c60048036038101906101679190612b87565b6105b9565b6040516101799190613164565b60405180910390f35b34801561018e57600080fd5b506101976105cb565b6040516101a4919061317f565b60405180910390f35b3480156101b957600080fd5b506101d460048036038101906101cf9190612c1a565b61065d565b6040516101e191906130db565b60405180910390f35b3480156101f657600080fd5b50610211600480360381019061020c9190612b4b565b6106e2565b005b34801561021f57600080fd5b506102286107fa565b6040516102359190613441565b60405180910390f35b34801561024a57600080fd5b50610265600480360381019061026091906129f1565b610807565b005b34801561027357600080fd5b5061028e60048036038101906102899190612b4b565b610867565b60405161029b9190613441565b60405180910390f35b3480156102b057600080fd5b506102cb60048036038101906102c691906129f1565b61090c565b005b3480156102d957600080fd5b506102f460048036038101906102ef9190612c1a565b61092c565b6040516103019190613441565b60405180910390f35b610324600480360381019061031f9190612af7565b6109c3565b6040516103319190613441565b60405180910390f35b34801561034657600080fd5b50610361600480360381019061035c9190612c1a565b610aa5565b60405161036e91906130db565b60405180910390f35b34801561038357600080fd5b5061039e6004803603810190610399919061298c565b610b57565b6040516103ab9190613441565b60405180910390f35b3480156103c057600080fd5b506103c9610c0f565b005b3480156103d757600080fd5b506103e0610c97565b6040516103ed91906130db565b60405180910390f35b34801561040257600080fd5b5061040b610cc1565b604051610418919061317f565b60405180910390f35b34801561042d57600080fd5b50610448600480360381019061044391906129b5565b610d53565b6040516104559190613142565b60405180910390f35b34801561046a57600080fd5b5061048560048036038101906104809190612bd9565b610ece565b6040516104929190613164565b60405180910390f35b3480156104a757600080fd5b506104c260048036038101906104bd9190612abb565b610f09565b005b3480156104d057600080fd5b506104eb60048036038101906104e69190612a40565b610f1f565b005b3480156104f957600080fd5b50610514600480360381019061050f9190612c1a565b610f81565b604051610521919061317f565b60405180910390f35b34801561053657600080fd5b50610551600480360381019061054c9190612af7565b610f93565b005b34801561055f57600080fd5b5061057a600480360381019061057591906129b5565b611040565b6040516105879190613164565b60405180910390f35b34801561059c57600080fd5b506105b760048036038101906105b2919061298c565b6110d4565b005b60006105c4826111cc565b9050919050565b6060600080546105da906136d0565b80601f0160208091040260200160405190810160405280929190818152602001828054610606906136d0565b80156106535780601f1061062857610100808354040283529160200191610653565b820191906000526020600020905b81548152906001019060200180831161063657829003601f168201915b5050505050905090565b600061066882611246565b6106a7576040517f08c379a000000000000000000000000000000000000000000000000000000000815260040161069e90613361565b60405180910390fd5b6004600083815260200190815260200160002060009054906101000a900473ffffffffffffffffffffffffffffffffffffffff169050919050565b60006106ed82610aa5565b90508073ffffffffffffffffffffffffffffffffffffffff168373ffffffffffffffffffffffffffffffffffffffff16141561075e576040517f08c379a0000000000000000000000000000000000000000000000000000000008152600401610755906133c1565b60405180910390fd5b8073ffffffffffffffffffffffffffffffffffffffff1661077d6112b2565b73ffffffffffffffffffffffffffffffffffffffff1614806107ac57506107ab816107a66112b2565b611040565b5b6107eb576040517f08c379a00000000000000000000000000000000000000000000000000000000081526004016107e2906132a1565b60405180910390fd5b6107f583836112ba565b505050565b6000600a80549050905090565b6108186108126112b2565b82611373565b610857576040517f08c379a000000000000000000000000000000000000000000000000000000000815260040161084e906133e1565b60405180910390fd5b610862838383611451565b505050565b600061087283610b57565b82106108b3576040517f08c379a00000000000000000000000000000000000000000000000000000000081526004016108aa906131a1565b60405180910390fd5b600860008473ffffffffffffffffffffffffffffffffffffffff1673ffffffffffffffffffffffffffffffffffffffff168152602001908152602001600020600083815260200190815260200160002054905092915050565b61092783838360405180602001604052806000815250610f1f565b505050565b60006109366107fa565b8210610977576040517f08c379a000000000000000000000000000000000000000000000000000000000815260040161096e90613421565b60405180910390fd5b600a82815481106109b1577f4e487b7100000000000000000000000000000000000000000000000000000000600052603260045260246000fd5b90600052602060002001549050919050565b60006001600d836040516109d791906130a0565b908152602001604051809103902060009054906101000a900460ff1660ff161415610a37576040517f08c379a0000000000000000000000000000000000000000000000000000000008152600401610a2e90613401565b60405180910390fd5b6000610a43600c6116b8565b9050610a4f600c6116c6565b6001600d84604051610a6191906130a0565b908152602001604051809103902060006101000a81548160ff021916908360ff160217905550610a9184826116dc565b610a9b81846118b6565b8091505092915050565b6000806002600084815260200190815260200160002060009054906101000a900473ffffffffffffffffffffffffffffffffffffffff169050600073ffffffffffffffffffffffffffffffffffffffff168173ffffffffffffffffffffffffffffffffffffffff161415610b4e576040517f08c379a0000000000000000000000000000000000000000000000000000000008152600401610b45906132e1565b60405180910390fd5b80915050919050565b60008073ffffffffffffffffffffffffffffffffffffffff168273ffffffffffffffffffffffffffffffffffffffff161415610bc8576040517f08c379a0000000000000000000000000000000000000000000000000000000008152600401610bbf906132c1565b60405180910390fd5b600360008373ffffffffffffffffffffffffffffffffffffffff1673ffffffffffffffffffffffffffffffffffffffff168152602001908152602001600020549050919050565b610c176112b2565b73ffffffffffffffffffffffffffffffffffffffff16610c35610c97565b73ffffffffffffffffffffffffffffffffffffffff1614610c8b576040517f08c379a0000000000000000000000000000000000000000000000000000000008152600401610c8290613381565b60405180910390fd5b610c95600061192a565b565b6000600760009054906101000a900473ffffffffffffffffffffffffffffffffffffffff16905090565b606060018054610cd0906136d0565b80601f0160208091040260200160405190810160405280929190818152602001828054610cfc906136d0565b8015610d495780601f10610d1e57610100808354040283529160200191610d49565b820191906000526020600020905b815481529060010190602001808311610d2c57829003601f168201915b5050505050905090565b606060008373ffffffffffffffffffffffffffffffffffffffff166370a08231846040518263ffffffff1660e01b8152600401610d9091906130db565b60206040518083038186803b158015610da857600080fd5b505afa158015610dbc573d6000803e3d6000fd5b505050506040513d601f19601f82011682018060405250810190610de09190612c43565b905060008167ffffffffffffffff811115610e24577f4e487b7100000000000000000000000000000000000000000000000000000000600052604160045260246000fd5b604051908082528060200260200182016040528015610e525781602001602082028036833780820191505090505b50905060005b82811015610ec257610e6a8582610867565b828281518110610ea3577f4e487b7100000000000000000000000000000000000000000000000000000000600052603260045260246000fd5b6020026020010181815250508080610eba90613733565b915050610e58565b50809250505092915050565b60006001600d83604051610ee291906130a0565b908152602001604051809103902060009054906101000a900460ff1660ff16149050919050565b610f1b610f146112b2565b83836119f0565b5050565b610f30610f2a6112b2565b83611373565b610f6f576040517f08c379a0000000000000000000000000000000000000000000000000000000008152600401610f66906133e1565b60405180910390fd5b610f7b84848484611b5d565b50505050565b6060610f8c82611bb9565b9050919050565b610f9b6112b2565b73ffffffffffffffffffffffffffffffffffffffff16610fb9610c97565b73ffffffffffffffffffffffffffffffffffffffff161461100f576040517f08c379a000000000000000000000000000000000000000000000000000000000815260040161100690613381565b60405180910390fd5b600061101b600c6116b8565b9050611027600c6116c6565b6110318382611d0b565b61103b81836118b6565b505050565b6000600560008473ffffffffffffffffffffffffffffffffffffffff1673ffffffffffffffffffffffffffffffffffffffff16815260200190815260200160002060008373ffffffffffffffffffffffffffffffffffffffff1673ffffffffffffffffffffffffffffffffffffffff16815260200190815260200160002060009054906101000a900460ff16905092915050565b6110dc6112b2565b73ffffffffffffffffffffffffffffffffffffffff166110fa610c97565b73ffffffffffffffffffffffffffffffffffffffff1614611150576040517f08c379a000000000000000000000000000000000000000000000000000000000815260040161114790613381565b60405180910390fd5b600073ffffffffffffffffffffffffffffffffffffffff168173ffffffffffffffffffffffffffffffffffffffff1614156111c0576040517f08c379a00000000000000000000000000000000000000000000000000000000081526004016111b7906131e1565b60405180910390fd5b6111c98161192a565b50565b60007f780e9d63000000000000000000000000000000000000000000000000000000007bffffffffffffffffffffffffffffffffffffffffffffffffffffffff1916827bffffffffffffffffffffffffffffffffffffffffffffffffffffffff1916148061123f575061123e82611d29565b5b9050919050565b60008073ffffffffffffffffffffffffffffffffffffffff166002600084815260200190815260200160002060009054906101000a900473ffffffffffffffffffffffffffffffffffffffff1673ffffffffffffffffffffffffffffffffffffffff1614159050919050565b600033905090565b816004600083815260200190815260200160002060006101000a81548173ffffffffffffffffffffffffffffffffffffffff021916908373ffffffffffffffffffffffffffffffffffffffff160217905550808273ffffffffffffffffffffffffffffffffffffffff1661132d83610aa5565b73ffffffffffffffffffffffffffffffffffffffff167f8c5be1e5ebec7d5bd14f71427d1e84f3dd0314c0f7b2291e5b200ac8c7c3b92560405160405180910390a45050565b600061137e82611246565b6113bd576040517f08c379a00000000000000000000000000000000000000000000000000000000081526004016113b490613281565b60405180910390fd5b60006113c883610aa5565b90508073ffffffffffffffffffffffffffffffffffffffff168473ffffffffffffffffffffffffffffffffffffffff16148061140a57506114098185611040565b5b8061144857508373ffffffffffffffffffffffffffffffffffffffff166114308461065d565b73ffffffffffffffffffffffffffffffffffffffff16145b91505092915050565b8273ffffffffffffffffffffffffffffffffffffffff1661147182610aa5565b73ffffffffffffffffffffffffffffffffffffffff16146114c7576040517f08c379a00000000000000000000000000000000000000000000000000000000081526004016114be90613201565b60405180910390fd5b600073ffffffffffffffffffffffffffffffffffffffff168273ffffffffffffffffffffffffffffffffffffffff161415611537576040517f08c379a000000000000000000000000000000000000000000000000000000000815260040161152e90613241565b60405180910390fd5b611542838383611e0b565b61154d6000826112ba565b6001600360008573ffffffffffffffffffffffffffffffffffffffff1673ffffffffffffffffffffffffffffffffffffffff168152602001908152602001600020600082825461159d91906135e6565b925050819055506001600360008473ffffffffffffffffffffffffffffffffffffffff1673ffffffffffffffffffffffffffffffffffffffff16815260200190815260200160002060008282546115f4919061355f565b92505081905550816002600083815260200190815260200160002060006101000a81548173ffffffffffffffffffffffffffffffffffffffff021916908373ffffffffffffffffffffffffffffffffffffffff160217905550808273ffffffffffffffffffffffffffffffffffffffff168473ffffffffffffffffffffffffffffffffffffffff167fddf252ad1be2c89b69c2b068fc378daa952ba7f163c4a11628f55a4df523b3ef60405160405180910390a46116b3838383611e1b565b505050565b600081600001549050919050565b6001816000016000828254019250508190555050565b600073ffffffffffffffffffffffffffffffffffffffff168273ffffffffffffffffffffffffffffffffffffffff16141561174c576040517f08c379a000000000000000000000000000000000000000000000000000000000815260040161174390613321565b60405180910390fd5b61175581611246565b15611795576040517f08c379a000000000000000000000000000000000000000000000000000000000815260040161178c90613221565b60405180910390fd5b6117a160008383611e0b565b6001600360008473ffffffffffffffffffffffffffffffffffffffff1673ffffffffffffffffffffffffffffffffffffffff16815260200190815260200160002060008282546117f1919061355f565b92505081905550816002600083815260200190815260200160002060006101000a81548173ffffffffffffffffffffffffffffffffffffffff021916908373ffffffffffffffffffffffffffffffffffffffff160217905550808273ffffffffffffffffffffffffffffffffffffffff16600073ffffffffffffffffffffffffffffffffffffffff167fddf252ad1be2c89b69c2b068fc378daa952ba7f163c4a11628f55a4df523b3ef60405160405180910390a46118b260008383611e1b565b5050565b6118bf82611246565b6118fe576040517f08c379a00000000000000000000000000000000000000000000000000000000081526004016118f590613301565b60405180910390fd5b8060066000848152602001908152602001600020908051906020019061192592919061279b565b505050565b6000600760009054906101000a900473ffffffffffffffffffffffffffffffffffffffff16905081600760006101000a81548173ffffffffffffffffffffffffffffffffffffffff021916908373ffffffffffffffffffffffffffffffffffffffff1602179055508173ffffffffffffffffffffffffffffffffffffffff168173ffffffffffffffffffffffffffffffffffffffff167f8be0079c531659141344cd1fd0a4f28419497f9722a3daafe3b4186f6b6457e060405160405180910390a35050565b8173ffffffffffffffffffffffffffffffffffffffff168373ffffffffffffffffffffffffffffffffffffffff161415611a5f576040517f08c379a0000000000000000000000000000000000000000000000000000000008152600401611a5690613261565b60405180910390fd5b80600560008573ffffffffffffffffffffffffffffffffffffffff1673ffffffffffffffffffffffffffffffffffffffff16815260200190815260200160002060008473ffffffffffffffffffffffffffffffffffffffff1673ffffffffffffffffffffffffffffffffffffffff16815260200190815260200160002060006101000a81548160ff0219169083151502179055508173ffffffffffffffffffffffffffffffffffffffff168373ffffffffffffffffffffffffffffffffffffffff167f17307eab39ab6107e8899845ad3d59bd9653f200f220920489ca2b5937696c3183604051611b509190613164565b60405180910390a3505050565b611b68848484611451565b611b7484848484611e20565b611bb3576040517f08c379a0000000000000000000000000000000000000000000000000000000008152600401611baa906131c1565b60405180910390fd5b50505050565b6060611bc482611246565b611c03576040517f08c379a0000000000000000000000000000000000000000000000000000000008152600401611bfa90613341565b60405180910390fd5b6000600660008481526020019081526020016000208054611c23906136d0565b80601f0160208091040260200160405190810160405280929190818152602001828054611c4f906136d0565b8015611c9c5780601f10611c7157610100808354040283529160200191611c9c565b820191906000526020600020905b815481529060010190602001808311611c7f57829003601f168201915b505050505090506000611cad611fb7565b9050600081511415611cc3578192505050611d06565b600082511115611cf8578082604051602001611ce09291906130b7565b60405160208183030381529060405292505050611d06565b611d0184611fce565b925050505b919050565b611d25828260405180602001604052806000815250612075565b5050565b60007f80ac58cd000000000000000000000000000000000000000000000000000000007bffffffffffffffffffffffffffffffffffffffffffffffffffffffff1916827bffffffffffffffffffffffffffffffffffffffffffffffffffffffff19161480611df457507f5b5e139f000000000000000000000000000000000000000000000000000000007bffffffffffffffffffffffffffffffffffffffffffffffffffffffff1916827bffffffffffffffffffffffffffffffffffffffffffffffffffffffff1916145b80611e045750611e03826120d0565b5b9050919050565b611e1683838361213a565b505050565b505050565b6000611e418473ffffffffffffffffffffffffffffffffffffffff1661224e565b15611faa578373ffffffffffffffffffffffffffffffffffffffff1663150b7a02611e6a6112b2565b8786866040518563ffffffff1660e01b8152600401611e8c94939291906130f6565b602060405180830381600087803b158015611ea657600080fd5b505af1925050508015611ed757506040513d601f19601f82011682018060405250810190611ed49190612bb0565b60015b611f5a573d8060008114611f07576040519150601f19603f3d011682016040523d82523d6000602084013e611f0c565b606091505b50600081511415611f52576040517f08c379a0000000000000000000000000000000000000000000000000000000008152600401611f49906131c1565b60405180910390fd5b805181602001fd5b63150b7a0260e01b7bffffffffffffffffffffffffffffffffffffffffffffffffffffffff1916817bffffffffffffffffffffffffffffffffffffffffffffffffffffffff191614915050611faf565b600190505b949350505050565b606060405180602001604052806000815250905090565b6060611fd982611246565b612018576040517f08c379a000000000000000000000000000000000000000000000000000000000815260040161200f906133a1565b60405180910390fd5b6000612022611fb7565b90506000815111612042576040518060200160405280600081525061206d565b8061204c84612271565b60405160200161205d9291906130b7565b6040516020818303038152906040525b915050919050565b61207f83836116dc565b61208c6000848484611e20565b6120cb576040517f08c379a00000000000000000000000000000000000000000000000000000000081526004016120c2906131c1565b60405180910390fd5b505050565b60007f01ffc9a7000000000000000000000000000000000000000000000000000000007bffffffffffffffffffffffffffffffffffffffffffffffffffffffff1916827bffffffffffffffffffffffffffffffffffffffffffffffffffffffff1916149050919050565b61214583838361241e565b600073ffffffffffffffffffffffffffffffffffffffff168373ffffffffffffffffffffffffffffffffffffffff1614156121885761218381612423565b6121c7565b8173ffffffffffffffffffffffffffffffffffffffff168373ffffffffffffffffffffffffffffffffffffffff16146121c6576121c5838261246c565b5b5b600073ffffffffffffffffffffffffffffffffffffffff168273ffffffffffffffffffffffffffffffffffffffff16141561220a57612205816125d9565b612249565b8273ffffffffffffffffffffffffffffffffffffffff168273ffffffffffffffffffffffffffffffffffffffff161461224857612247828261271c565b5b5b505050565b6000808273ffffffffffffffffffffffffffffffffffffffff163b119050919050565b606060008214156122b9576040518060400160405280600181526020017f30000000000000000000000000000000000000000000000000000000000000008152509050612419565b600082905060005b600082146122eb5780806122d490613733565b915050600a826122e491906135b5565b91506122c1565b60008167ffffffffffffffff81111561232d577f4e487b7100000000000000000000000000000000000000000000000000000000600052604160045260246000fd5b6040519080825280601f01601f19166020018201604052801561235f5781602001600182028036833780820191505090505b5090505b600085146124125760018261237891906135e6565b9150600a85612387919061377c565b6030612393919061355f565b60f81b8183815181106123cf577f4e487b7100000000000000000000000000000000000000000000000000000000600052603260045260246000fd5b60200101907effffffffffffffffffffffffffffffffffffffffffffffffffffffffffffff1916908160001a905350600a8561240b91906135b5565b9450612363565b8093505050505b919050565b505050565b600a80549050600b600083815260200190815260200160002081905550600a81908060018154018082558091505060019003906000526020600020016000909190919091505550565b6000600161247984610b57565b61248391906135e6565b9050600060096000848152602001908152602001600020549050818114612568576000600860008673ffffffffffffffffffffffffffffffffffffffff1673ffffffffffffffffffffffffffffffffffffffff168152602001908152602001600020600084815260200190815260200160002054905080600860008773ffffffffffffffffffffffffffffffffffffffff1673ffffffffffffffffffffffffffffffffffffffff168152602001908152602001600020600084815260200190815260200160002081905550816009600083815260200190815260200160002081905550505b6009600084815260200190815260200160002060009055600860008573ffffffffffffffffffffffffffffffffffffffff1673ffffffffffffffffffffffffffffffffffffffff16815260200190815260200160002060008381526020019081526020016000206000905550505050565b60006001600a805490506125ed91906135e6565b90506000600b60008481526020019081526020016000205490506000600a8381548110612643577f4e487b7100000000000000000000000000000000000000000000000000000000600052603260045260246000fd5b9060005260206000200154905080600a838154811061268b577f4e487b7100000000000000000000000000000000000000000000000000000000600052603260045260246000fd5b906000526020600020018190555081600b600083815260200190815260200160002081905550600b600085815260200190815260200160002060009055600a805480612700577f4e487b7100000000000000000000000000000000000000000000000000000000600052603160045260246000fd5b6001900381819060005260206000200160009055905550505050565b600061272783610b57565b905081600860008573ffffffffffffffffffffffffffffffffffffffff1673ffffffffffffffffffffffffffffffffffffffff168152602001908152602001600020600083815260200190815260200160002081905550806009600084815260200190815260200160002081905550505050565b8280546127a7906136d0565b90600052602060002090601f0160209004810192826127c95760008555612810565b82601f106127e257805160ff1916838001178555612810565b82800160010185558215612810579182015b8281111561280f5782518255916020019190600101906127f4565b5b50905061281d9190612821565b5090565b5b8082111561283a576000816000905550600101612822565b5090565b600061285161284c84613481565b61345c565b90508281526020810184848401111561286957600080fd5b61287484828561368e565b509392505050565b600061288f61288a846134b2565b61345c565b9050828152602081018484840111156128a757600080fd5b6128b284828561368e565b509392505050565b6000813590506128c981613e37565b92915050565b6000813590506128de81613e4e565b92915050565b6000813590506128f381613e65565b92915050565b60008151905061290881613e65565b92915050565b600082601f83011261291f57600080fd5b813561292f84826020860161283e565b91505092915050565b600082601f83011261294957600080fd5b813561295984826020860161287c565b91505092915050565b60008135905061297181613e7c565b92915050565b60008151905061298681613e7c565b92915050565b60006020828403121561299e57600080fd5b60006129ac848285016128ba565b91505092915050565b600080604083850312156129c857600080fd5b60006129d6858286016128ba565b92505060206129e7858286016128ba565b9150509250929050565b600080600060608486031215612a0657600080fd5b6000612a14868287016128ba565b9350506020612a25868287016128ba565b9250506040612a3686828701612962565b9150509250925092565b60008060008060808587031215612a5657600080fd5b6000612a64878288016128ba565b9450506020612a75878288016128ba565b9350506040612a8687828801612962565b925050606085013567ffffffffffffffff811115612aa357600080fd5b612aaf8782880161290e565b91505092959194509250565b60008060408385031215612ace57600080fd5b6000612adc858286016128ba565b9250506020612aed858286016128cf565b9150509250929050565b60008060408385031215612b0a57600080fd5b6000612b18858286016128ba565b925050602083013567ffffffffffffffff811115612b3557600080fd5b612b4185828601612938565b9150509250929050565b60008060408385031215612b5e57600080fd5b6000612b6c858286016128ba565b9250506020612b7d85828601612962565b9150509250929050565b600060208284031215612b9957600080fd5b6000612ba7848285016128e4565b91505092915050565b600060208284031215612bc257600080fd5b6000612bd0848285016128f9565b91505092915050565b600060208284031215612beb57600080fd5b600082013567ffffffffffffffff811115612c0557600080fd5b612c1184828501612938565b91505092915050565b600060208284031215612c2c57600080fd5b6000612c3a84828501612962565b91505092915050565b600060208284031215612c5557600080fd5b6000612c6384828501612977565b91505092915050565b6000612c788383613082565b60208301905092915050565b612c8d8161361a565b82525050565b6000612c9e826134f3565b612ca88185613521565b9350612cb3836134e3565b8060005b83811015612ce4578151612ccb8882612c6c565b9750612cd683613514565b925050600181019050612cb7565b5085935050505092915050565b612cfa8161362c565b82525050565b6000612d0b826134fe565b612d158185613532565b9350612d2581856020860161369d565b612d2e81613869565b840191505092915050565b6000612d4482613509565b612d4e8185613543565b9350612d5e81856020860161369d565b612d6781613869565b840191505092915050565b6000612d7d82613509565b612d878185613554565b9350612d9781856020860161369d565b80840191505092915050565b6000612db0602b83613543565b9150612dbb8261387a565b604082019050919050565b6000612dd3603283613543565b9150612dde826138c9565b604082019050919050565b6000612df6602683613543565b9150612e0182613918565b604082019050919050565b6000612e19602583613543565b9150612e2482613967565b604082019050919050565b6000612e3c601c83613543565b9150612e47826139b6565b602082019050919050565b6000612e5f602483613543565b9150612e6a826139df565b604082019050919050565b6000612e82601983613543565b9150612e8d82613a2e565b602082019050919050565b6000612ea5602c83613543565b9150612eb082613a57565b604082019050919050565b6000612ec8603883613543565b9150612ed382613aa6565b604082019050919050565b6000612eeb602a83613543565b9150612ef682613af5565b604082019050919050565b6000612f0e602983613543565b9150612f1982613b44565b604082019050919050565b6000612f31602e83613543565b9150612f3c82613b93565b604082019050919050565b6000612f54602083613543565b9150612f5f82613be2565b602082019050919050565b6000612f77603183613543565b9150612f8282613c0b565b604082019050919050565b6000612f9a602c83613543565b9150612fa582613c5a565b604082019050919050565b6000612fbd602083613543565b9150612fc882613ca9565b602082019050919050565b6000612fe0602f83613543565b9150612feb82613cd2565b604082019050919050565b6000613003602183613543565b915061300e82613d21565b604082019050919050565b6000613026603183613543565b915061303182613d70565b604082019050919050565b6000613049601383613543565b915061305482613dbf565b602082019050919050565b600061306c602c83613543565b915061307782613de8565b604082019050919050565b61308b81613684565b82525050565b61309a81613684565b82525050565b60006130ac8284612d72565b915081905092915050565b60006130c38285612d72565b91506130cf8284612d72565b91508190509392505050565b60006020820190506130f06000830184612c84565b92915050565b600060808201905061310b6000830187612c84565b6131186020830186612c84565b6131256040830185613091565b81810360608301526131378184612d00565b905095945050505050565b6000602082019050818103600083015261315c8184612c93565b905092915050565b60006020820190506131796000830184612cf1565b92915050565b600060208201905081810360008301526131998184612d39565b905092915050565b600060208201905081810360008301526131ba81612da3565b9050919050565b600060208201905081810360008301526131da81612dc6565b9050919050565b600060208201905081810360008301526131fa81612de9565b9050919050565b6000602082019050818103600083015261321a81612e0c565b9050919050565b6000602082019050818103600083015261323a81612e2f565b9050919050565b6000602082019050818103600083015261325a81612e52565b9050919050565b6000602082019050818103600083015261327a81612e75565b9050919050565b6000602082019050818103600083015261329a81612e98565b9050919050565b600060208201905081810360008301526132ba81612ebb565b9050919050565b600060208201905081810360008301526132da81612ede565b9050919050565b600060208201905081810360008301526132fa81612f01565b9050919050565b6000602082019050818103600083015261331a81612f24565b9050919050565b6000602082019050818103600083015261333a81612f47565b9050919050565b6000602082019050818103600083015261335a81612f6a565b9050919050565b6000602082019050818103600083015261337a81612f8d565b9050919050565b6000602082019050818103600083015261339a81612fb0565b9050919050565b600060208201905081810360008301526133ba81612fd3565b9050919050565b600060208201905081810360008301526133da81612ff6565b9050919050565b600060208201905081810360008301526133fa81613019565b9050919050565b6000602082019050818103600083015261341a8161303c565b9050919050565b6000602082019050818103600083015261343a8161305f565b9050919050565b60006020820190506134566000830184613091565b92915050565b6000613466613477565b90506134728282613702565b919050565b6000604051905090565b600067ffffffffffffffff82111561349c5761349b61383a565b5b6134a582613869565b9050602081019050919050565b600067ffffffffffffffff8211156134cd576134cc61383a565b5b6134d682613869565b9050602081019050919050565b6000819050602082019050919050565b600081519050919050565b600081519050919050565b600081519050919050565b6000602082019050919050565b600082825260208201905092915050565b600082825260208201905092915050565b600082825260208201905092915050565b600081905092915050565b600061356a82613684565b915061357583613684565b9250827fffffffffffffffffffffffffffffffffffffffffffffffffffffffffffffffff038211156135aa576135a96137ad565b5b828201905092915050565b60006135c082613684565b91506135cb83613684565b9250826135db576135da6137dc565b5b828204905092915050565b60006135f182613684565b91506135fc83613684565b92508282101561360f5761360e6137ad565b5b828203905092915050565b600061362582613664565b9050919050565b60008115159050919050565b60007fffffffff0000000000000000000000000000000000000000000000000000000082169050919050565b600073ffffffffffffffffffffffffffffffffffffffff82169050919050565b6000819050919050565b82818337600083830152505050565b60005b838110156136bb5780820151818401526020810190506136a0565b838111156136ca576000848401525b50505050565b600060028204905060018216806136e857607f821691505b602082108114156136fc576136fb61380b565b5b50919050565b61370b82613869565b810181811067ffffffffffffffff8211171561372a5761372961383a565b5b80604052505050565b600061373e82613684565b91507fffffffffffffffffffffffffffffffffffffffffffffffffffffffffffffffff821415613771576137706137ad565b5b600182019050919050565b600061378782613684565b915061379283613684565b9250826137a2576137a16137dc565b5b828206905092915050565b7f4e487b7100000000000000000000000000000000000000000000000000000000600052601160045260246000fd5b7f4e487b7100000000000000000000000000000000000000000000000000000000600052601260045260246000fd5b7f4e487b7100000000000000000000000000000000000000000000000000000000600052602260045260246000fd5b7f4e487b7100000000000000000000000000000000000000000000000000000000600052604160045260246000fd5b6000601f19601f8301169050919050565b7f455243373231456e756d657261626c653a206f776e657220696e646578206f7560008201527f74206f6620626f756e6473000000000000000000000000000000000000000000602082015250565b7f4552433732313a207472616e7366657220746f206e6f6e20455243373231526560008201527f63656976657220696d706c656d656e7465720000000000000000000000000000602082015250565b7f4f776e61626c653a206e6577206f776e657220697320746865207a65726f206160008201527f6464726573730000000000000000000000000000000000000000000000000000602082015250565b7f4552433732313a207472616e736665722066726f6d20696e636f72726563742060008201527f6f776e6572000000000000000000000000000000000000000000000000000000602082015250565b7f4552433732313a20746f6b656e20616c7265616479206d696e74656400000000600082015250565b7f4552433732313a207472616e7366657220746f20746865207a65726f2061646460008201527f7265737300000000000000000000000000000000000000000000000000000000602082015250565b7f4552433732313a20617070726f766520746f2063616c6c657200000000000000600082015250565b7f4552433732313a206f70657261746f7220717565727920666f72206e6f6e657860008201527f697374656e7420746f6b656e0000000000000000000000000000000000000000602082015250565b7f4552433732313a20617070726f76652063616c6c6572206973206e6f74206f7760008201527f6e6572206e6f7220617070726f76656420666f7220616c6c0000000000000000602082015250565b7f4552433732313a2062616c616e636520717565727920666f7220746865207a6560008201527f726f206164647265737300000000000000000000000000000000000000000000602082015250565b7f4552433732313a206f776e657220717565727920666f72206e6f6e657869737460008201527f656e7420746f6b656e0000000000000000000000000000000000000000000000602082015250565b7f45524337323155524953746f726167653a2055524920736574206f66206e6f6e60008201527f6578697374656e7420746f6b656e000000000000000000000000000000000000602082015250565b7f4552433732313a206d696e7420746f20746865207a65726f2061646472657373600082015250565b7f45524337323155524953746f726167653a2055524920717565727920666f722060008201527f6e6f6e6578697374656e7420746f6b656e000000000000000000000000000000602082015250565b7f4552433732313a20617070726f76656420717565727920666f72206e6f6e657860008201527f697374656e7420746f6b656e0000000000000000000000000000000000000000602082015250565b7f4f776e61626c653a2063616c6c6572206973206e6f7420746865206f776e6572600082015250565b7f4552433732314d657461646174613a2055524920717565727920666f72206e6f60008201527f6e6578697374656e7420746f6b656e0000000000000000000000000000000000602082015250565b7f4552433732313a20617070726f76616c20746f2063757272656e74206f776e6560008201527f7200000000000000000000000000000000000000000000000000000000000000602082015250565b7f4552433732313a207472616e736665722063616c6c6572206973206e6f74206f60008201527f776e6572206e6f7220617070726f766564000000000000000000000000000000602082015250565b7f4e465420616c7265616479206d696e7465642100000000000000000000000000600082015250565b7f455243373231456e756d657261626c653a20676c6f62616c20696e646578206f60008201527f7574206f6620626f756e64730000000000000000000000000000000000000000602082015250565b613e408161361a565b8114613e4b57600080fd5b50565b613e578161362c565b8114613e6257600080fd5b50565b613e6e81613638565b8114613e7957600080fd5b50565b613e8581613684565b8114613e9057600080fd5b5056fea2646970667358221220d6b2d19e35a7cb484b0a9df2637faeef3f4b380c208476e781bed91260bd5ae364736f6c63430008040033",
  "linkReferences": {},
  "deployedLinkReferences": {}
}