{
  "_format": "hh-sol-artifact-1",
  "contractName": "MyToken",
  "sourceName": "contracts/nft.sol",
  "abi": [
    {
      "inputs": [],
      "stateMutability": "nonpayable",
      "type": "constructor"
    },
    {
      "anonymous": false,
      "inputs": [
        {
          "indexed": true,
          "internalType": "address",
          "name": "owner",
          "type": "address"
        },
        {
          "indexed": true,
          "internalType": "address",
          "name": "approved",
          "type": "address"
        },
        {
          "indexed": true,
          "internalType": "uint256",
          "name": "tokenId",
          "type": "uint256"
        }
      ],
      "name": "Approval",
      "type": "event"
    },
    {
      "anonymous": false,
      "inputs": [
        {
          "indexed": true,
          "internalType": "address",
          "name": "owner",
          "type": "address"
        },
        {
          "indexed": true,
          "internalType": "address",
          "name": "operator",
          "type": "address"
        },
        {
          "indexed": false,
          "internalType": "bool",
          "name": "approved",
          "type": "bool"
        }
      ],
      "name": "ApprovalForAll",
      "type": "event"
    },
    {
      "anonymous": false,
      "inputs": [
        {
          "indexed": true,
          "internalType": "address",
          "name": "previousOwner",
          "type": "address"
        },
        {
          "indexed": true,
          "internalType": "address",
          "name": "newOwner",
          "type": "address"
        }
      ],
      "name": "OwnershipTransferred",
      "type": "event"
    },
    {
      "anonymous": false,
      "inputs": [
        {
          "indexed": true,
          "internalType": "address",
          "name": "from",
          "type": "address"
        },
        {
          "indexed": true,
          "internalType": "address",
          "name": "to",
          "type": "address"
        },
        {
          "indexed": true,
          "internalType": "uint256",
          "name": "tokenId",
          "type": "uint256"
        }
      ],
      "name": "Transfer",
      "type": "event"
    },
    {
      "inputs": [
        {
          "internalType": "address",
          "name": "to",
          "type": "address"
        },
        {
          "internalType": "uint256",
          "name": "tokenId",
          "type": "uint256"
        }
      ],
      "name": "approve",
      "outputs": [],
      "stateMutability": "nonpayable",
      "type": "function"
    },
    {
      "inputs": [
        {
          "internalType": "address",
          "name": "owner",
          "type": "address"
        }
      ],
      "name": "balanceOf",
      "outputs": [
        {
          "internalType": "uint256",
          "name": "",
          "type": "uint256"
        }
      ],
      "stateMutability": "view",
      "type": "function"
    },
    {
      "inputs": [
        {
          "internalType": "uint256",
          "name": "tokenId",
          "type": "uint256"
        }
      ],
      "name": "getApproved",
      "outputs": [
        {
          "internalType": "address",
          "name": "",
          "type": "address"
        }
      ],
      "stateMutability": "view",
      "type": "function"
    },
    {
      "inputs": [
        {
          "internalType": "address",
          "name": "owner",
          "type": "address"
        },
        {
          "internalType": "address",
          "name": "operator",
          "type": "address"
        }
      ],
      "name": "isApprovedForAll",
      "outputs": [
        {
          "internalType": "bool",
          "name": "",
          "type": "bool"
        }
      ],
      "stateMutability": "view",
      "type": "function"
    },
    {
      "inputs": [
        {
          "internalType": "string",
          "name": "uri",
          "type": "string"
        }
      ],
      "name": "isContentOwned",
      "outputs": [
        {
          "internalType": "bool",
          "name": "",
          "type": "bool"
        }
      ],
      "stateMutability": "view",
      "type": "function"
    },
    {
      "inputs": [
        {
          "internalType": "address",
          "name": "contractAddress",
          "type": "address"
        },
        {
          "internalType": "address",
          "name": "owner",
          "type": "address"
        }
      ],
      "name": "listUserNFTs",
      "outputs": [
        {
          "internalType": "uint256[]",
          "name": "",
          "type": "uint256[]"
        }
      ],
      "stateMutability": "view",
      "type": "function"
    },
    {
      "inputs": [],
      "name": "name",
      "outputs": [
        {
          "internalType": "string",
          "name": "",
          "type": "string"
        }
      ],
      "stateMutability": "view",
      "type": "function"
    },
    {
      "inputs": [],
      "name": "owner",
      "outputs": [
        {
          "internalType": "address",
          "name": "",
          "type": "address"
        }
      ],
      "stateMutability": "view",
      "type": "function"
    },
    {
      "inputs": [
        {
          "internalType": "uint256",
          "name": "tokenId",
          "type": "uint256"
        }
      ],
      "name": "ownerOf",
      "outputs": [
        {
          "internalType": "address",
          "name": "",
          "type": "address"
        }
      ],
      "stateMutability": "view",
      "type": "function"
    },
    {
      "inputs": [
        {
          "internalType": "address",
          "name": "recipient",
          "type": "address"
        },
        {
          "internalType": "string",
          "name": "metadataURI",
          "type": "string"
        }
      ],
      "name": "payToMint",
      "outputs": [
        {
          "internalType": "uint256",
          "name": "",
          "type": "uint256"
        }
      ],
      "stateMutability": "payable",
      "type": "function"
    },
    {
      "inputs": [],
      "name": "renounceOwnership",
      "outputs": [],
      "stateMutability": "nonpayable",
      "type": "function"
    },
    {
      "inputs": [
        {
          "internalType": "address",
          "name": "to",
          "type": "address"
        },
        {
          "internalType": "string",
          "name": "uri",
          "type": "string"
        }
      ],
      "name": "safeMint",
      "outputs": [],
      "stateMutability": "nonpayable",
      "type": "function"
    },
    {
      "inputs": [
        {
          "internalType": "address",
          "name": "from",
          "type": "address"
        },
        {
          "internalType": "address",
          "name": "to",
          "type": "address"
        },
        {
          "internalType": "uint256",
          "name": "tokenId",
          "type": "uint256"
        }
      ],
      "name": "safeTransferFrom",
      "outputs": [],
      "stateMutability": "nonpayable",
      "type": "function"
    },
    {
      "inputs": [
        {
          "internalType": "address",
          "name": "from",
          "type": "address"
        },
        {
          "internalType": "address",
          "name": "to",
          "type": "address"
        },
        {
          "internalType": "uint256",
          "name": "tokenId",
          "type": "uint256"
        },
        {
          "internalType": "bytes",
          "name": "_data",
          "type": "bytes"
        }
      ],
      "name": "safeTransferFrom",
      "outputs": [],
      "stateMutability": "nonpayable",
      "type": "function"
    },
    {
      "inputs": [
        {
          "internalType": "address",
          "name": "operator",
          "type": "address"
        },
        {
          "internalType": "bool",
          "name": "approved",
          "type": "bool"
        }
      ],
      "name": "setApprovalForAll",
      "outputs": [],
      "stateMutability": "nonpayable",
      "type": "function"
    },
    {
      "inputs": [
        {
          "internalType": "bytes4",
          "name": "interfaceId",
          "type": "bytes4"
        }
      ],
      "name": "supportsInterface",
      "outputs": [
        {
          "internalType": "bool",
          "name": "",
          "type": "bool"
        }
      ],
      "stateMutability": "view",
      "type": "function"
    },
    {
      "inputs": [],
      "name": "symbol",
      "outputs": [
        {
          "internalType": "string",
          "name": "",
          "type": "string"
        }
      ],
      "stateMutability": "view",
      "type": "function"
    },
    {
      "inputs": [
        {
          "internalType": "uint256",
          "name": "index",
          "type": "uint256"
        }
      ],
      "name": "tokenByIndex",
      "outputs": [
        {
          "internalType": "uint256",
          "name": "",
          "type": "uint256"
        }
      ],
      "stateMutability": "view",
      "type": "function"
    },
    {
      "inputs": [
        {
          "internalType": "address",
          "name": "owner",
          "type": "address"
        },
        {
          "internalType": "uint256",
          "name": "index",
          "type": "uint256"
        }
      ],
      "name": "tokenOfOwnerByIndex",
      "outputs": [
        {
          "internalType": "uint256",
          "name": "",
          "type": "uint256"
        }
      ],
      "stateMutability": "view",
      "type": "function"
    },
    {
      "inputs": [
        {
          "internalType": "uint256",
          "name": "tokenId",
          "type": "uint256"
        }
      ],
      "name": "tokenURI",
      "outputs": [
        {
          "internalType": "string",
          "name": "",
          "type": "string"
        }
      ],
      "stateMutability": "view",
      "type": "function"
    },
    {
      "inputs": [],
      "name": "totalSupply",
      "outputs": [
        {
          "internalType": "uint256",
          "name": "",
          "type": "uint256"
        }
      ],
      "stateMutability": "view",
      "type": "function"
    },
    {
      "inputs": [
        {
          "internalType": "address",
          "name": "from",
          "type": "address"
        },
        {
          "internalType": "address",
          "name": "to",
          "type": "address"
        },
        {
          "internalType": "uint256",
          "name": "tokenId",
          "type": "uint256"
        }
      ],
      "name": "transferFrom",
      "outputs": [],
      "stateMutability": "nonpayable",
      "type": "function"
    },
    {
      "inputs": [
        {
          "internalType": "address",
          "name": "newOwner",
          "type": "address"
        }
      ],
      "name": "transferOwnership",
      "outputs": [],
      "stateMutability": "nonpayable",
      "type": "function"
    }
  ],
  "bytecode": "0x60806040523480156200001157600080fd5b506040518060400160405280600781526020017f4d79546f6b656e000000000000000000000000000000000000000000000000008152506040518060400160405280600381526020017f4142430000000000000000000000000000000000000000000000000000000000815250816000908051906020019062000096929190620001a6565b508060019080519060200190620000af929190620001a6565b505050620000d2620000c6620000d860201b60201c565b620000e060201b60201c565b620002bb565b600033905090565b6000600760009054906101000a900473ffffffffffffffffffffffffffffffffffffffff16905081600760006101000a81548173ffffffffffffffffffffffffffffffffffffffff021916908373ffffffffffffffffffffffffffffffffffffffff1602179055508173ffffffffffffffffffffffffffffffffffffffff168173ffffffffffffffffffffffffffffffffffffffff167f8be0079c531659141344cd1fd0a4f28419497f9722a3daafe3b4186f6b6457e060405160405180910390a35050565b828054620001b49062000256565b90600052602060002090601f016020900481019282620001d8576000855562000224565b82601f10620001f357805160ff191683800117855562000224565b8280016001018555821562000224579182015b828111156200022357825182559160200191906001019062000206565b5b50905062000233919062000237565b5090565b5b808211156200025257600081600090555060010162000238565b5090565b600060028204905060018216806200026f57607f821691505b602082108114156200028657620002856200028c565b5b50919050565b7f4e487b7100000000000000000000000000000000000000000000000000000000600052602260045260246000fd5b613fa580620002cb6000396000f3fe6080604052600436106101405760003560e01c806370a08231116100b6578063a22cb4651161006f578063a22cb4651461049b578063b88d4fde146104c4578063c87b56dd146104ed578063d204c45e1461052a578063e985e9c514610553578063f2fde38b1461059057610140565b806370a0823114610377578063715018a6146103b45780638da5cb5b146103cb57806395d89b41146103f65780639ae01292146104215780639f1cabc61461045e57610140565b806323b872dd1161010857806323b872dd1461023e5780632f745c591461026757806342842e0e146102a45780634f6ccce7146102cd578063615fd9e21461030a5780636352211e1461033a57610140565b806301ffc9a71461014557806306fdde0314610182578063081812fc146101ad578063095ea7b3146101ea57806318160ddd14610213575b600080fd5b34801561015157600080fd5b5061016c60048036038101906101679190612bf7565b6105b9565b60405161017991906131f7565b60405180910390f35b34801561018e57600080fd5b506101976105cb565b6040516101a49190613212565b60405180910390f35b3480156101b957600080fd5b506101d460048036038101906101cf9190612c8a565b61065d565b6040516101e1919061316e565b60405180910390f35b3480156101f657600080fd5b50610211600480360381019061020c9190612bbb565b6106e2565b005b34801561021f57600080fd5b506102286107fa565b60405161023591906134f4565b60405180910390f35b34801561024a57600080fd5b5061026560048036038101906102609190612a61565b610807565b005b34801561027357600080fd5b5061028e60048036038101906102899190612bbb565b610867565b60405161029b91906134f4565b60405180910390f35b3480156102b057600080fd5b506102cb60048036038101906102c69190612a61565b61090c565b005b3480156102d957600080fd5b506102f460048036038101906102ef9190612c8a565b61092c565b60405161030191906134f4565b60405180910390f35b610324600480360381019061031f9190612b67565b6109c3565b60405161033191906134f4565b60405180910390f35b34801561034657600080fd5b50610361600480360381019061035c9190612c8a565b610aef565b60405161036e919061316e565b60405180910390f35b34801561038357600080fd5b5061039e600480360381019061039991906129fc565b610ba1565b6040516103ab91906134f4565b60405180910390f35b3480156103c057600080fd5b506103c9610c59565b005b3480156103d757600080fd5b506103e0610ce1565b6040516103ed919061316e565b60405180910390f35b34801561040257600080fd5b5061040b610d0b565b6040516104189190613212565b60405180910390f35b34801561042d57600080fd5b5061044860048036038101906104439190612a25565b610d9d565b60405161045591906131d5565b60405180910390f35b34801561046a57600080fd5b5061048560048036038101906104809190612c49565b610f18565b60405161049291906131f7565b60405180910390f35b3480156104a757600080fd5b506104c260048036038101906104bd9190612b2b565b610f53565b005b3480156104d057600080fd5b506104eb60048036038101906104e69190612ab0565b610f69565b005b3480156104f957600080fd5b50610514600480360381019061050f9190612c8a565b610fcb565b6040516105219190613212565b60405180910390f35b34801561053657600080fd5b50610551600480360381019061054c9190612b67565b610fdd565b005b34801561055f57600080fd5b5061057a60048036038101906105759190612a25565b61108a565b60405161058791906131f7565b60405180910390f35b34801561059c57600080fd5b506105b760048036038101906105b291906129fc565b61111e565b005b60006105c482611216565b9050919050565b6060600080546105da90613783565b80601f016020809104026020016040519081016040528092919081815260200182805461060690613783565b80156106535780601f1061062857610100808354040283529160200191610653565b820191906000526020600020905b81548152906001019060200180831161063657829003601f168201915b5050505050905090565b600061066882611290565b6106a7576040517f08c379a000000000000000000000000000000000000000000000000000000000815260040161069e906133f4565b60405180910390fd5b6004600083815260200190815260200160002060009054906101000a900473ffffffffffffffffffffffffffffffffffffffff169050919050565b60006106ed82610aef565b90508073ffffffffffffffffffffffffffffffffffffffff168373ffffffffffffffffffffffffffffffffffffffff16141561075e576040517f08c379a000000000000000000000000000000000000000000000000000000000815260040161075590613454565b60405180910390fd5b8073ffffffffffffffffffffffffffffffffffffffff1661077d6112fc565b73ffffffffffffffffffffffffffffffffffffffff1614806107ac57506107ab816107a66112fc565b61108a565b5b6107eb576040517f08c379a00000000000000000000000000000000000000000000000000000000081526004016107e290613334565b60405180910390fd5b6107f58383611304565b505050565b6000600a80549050905090565b6108186108126112fc565b826113bd565b610857576040517f08c379a000000000000000000000000000000000000000000000000000000000815260040161084e90613474565b60405180910390fd5b61086283838361149b565b505050565b600061087283610ba1565b82106108b3576040517f08c379a00000000000000000000000000000000000000000000000000000000081526004016108aa90613234565b60405180910390fd5b600860008473ffffffffffffffffffffffffffffffffffffffff1673ffffffffffffffffffffffffffffffffffffffff168152602001908152602001600020600083815260200190815260200160002054905092915050565b61092783838360405180602001604052806000815250610f69565b505050565b60006109366107fa565b8210610977576040517f08c379a000000000000000000000000000000000000000000000000000000000815260040161096e906134b4565b60405180910390fd5b600a82815481106109b1577f4e487b7100000000000000000000000000000000000000000000000000000000600052603260045260246000fd5b90600052602060002001549050919050565b60006001600d836040516109d79190613133565b908152602001604051809103902060009054906101000a900460ff1660ff161415610a37576040517f08c379a0000000000000000000000000000000000000000000000000000000008152600401610a2e90613494565b60405180910390fd5b66b1a2bc2ec50000341015610a81576040517f08c379a0000000000000000000000000000000000000000000000000000000008152600401610a78906134d4565b60405180910390fd5b6000610a8d600c611702565b9050610a99600c611710565b6001600d84604051610aab9190613133565b908152602001604051809103902060006101000a81548160ff021916908360ff160217905550610adb8482611726565b610ae58184611900565b8091505092915050565b6000806002600084815260200190815260200160002060009054906101000a900473ffffffffffffffffffffffffffffffffffffffff169050600073ffffffffffffffffffffffffffffffffffffffff168173ffffffffffffffffffffffffffffffffffffffff161415610b98576040517f08c379a0000000000000000000000000000000000000000000000000000000008152600401610b8f90613374565b60405180910390fd5b80915050919050565b60008073ffffffffffffffffffffffffffffffffffffffff168273ffffffffffffffffffffffffffffffffffffffff161415610c12576040517f08c379a0000000000000000000000000000000000000000000000000000000008152600401610c0990613354565b60405180910390fd5b600360008373ffffffffffffffffffffffffffffffffffffffff1673ffffffffffffffffffffffffffffffffffffffff168152602001908152602001600020549050919050565b610c616112fc565b73ffffffffffffffffffffffffffffffffffffffff16610c7f610ce1565b73ffffffffffffffffffffffffffffffffffffffff1614610cd5576040517f08c379a0000000000000000000000000000000000000000000000000000000008152600401610ccc90613414565b60405180910390fd5b610cdf6000611974565b565b6000600760009054906101000a900473ffffffffffffffffffffffffffffffffffffffff16905090565b606060018054610d1a90613783565b80601f0160208091040260200160405190810160405280929190818152602001828054610d4690613783565b8015610d935780601f10610d6857610100808354040283529160200191610d93565b820191906000526020600020905b815481529060010190602001808311610d7657829003601f168201915b5050505050905090565b606060008373ffffffffffffffffffffffffffffffffffffffff166370a08231846040518263ffffffff1660e01b8152600401610dda919061316e565b60206040518083038186803b158015610df257600080fd5b505afa158015610e06573d6000803e3d6000fd5b505050506040513d601f19601f82011682018060405250810190610e2a9190612cb3565b905060008167ffffffffffffffff811115610e6e577f4e487b7100000000000000000000000000000000000000000000000000000000600052604160045260246000fd5b604051908082528060200260200182016040528015610e9c5781602001602082028036833780820191505090505b50905060005b82811015610f0c57610eb48582610867565b828281518110610eed577f4e487b7100000000000000000000000000000000000000000000000000000000600052603260045260246000fd5b6020026020010181815250508080610f04906137e6565b915050610ea2565b50809250505092915050565b60006001600d83604051610f2c9190613133565b908152602001604051809103902060009054906101000a900460ff1660ff16149050919050565b610f65610f5e6112fc565b8383611a3a565b5050565b610f7a610f746112fc565b836113bd565b610fb9576040517f08c379a0000000000000000000000000000000000000000000000000000000008152600401610fb090613474565b60405180910390fd5b610fc584848484611ba7565b50505050565b6060610fd682611c03565b9050919050565b610fe56112fc565b73ffffffffffffffffffffffffffffffffffffffff16611003610ce1565b73ffffffffffffffffffffffffffffffffffffffff1614611059576040517f08c379a000000000000000000000000000000000000000000000000000000000815260040161105090613414565b60405180910390fd5b6000611065600c611702565b9050611071600c611710565b61107b8382611d55565b6110858183611900565b505050565b6000600560008473ffffffffffffffffffffffffffffffffffffffff1673ffffffffffffffffffffffffffffffffffffffff16815260200190815260200160002060008373ffffffffffffffffffffffffffffffffffffffff1673ffffffffffffffffffffffffffffffffffffffff16815260200190815260200160002060009054906101000a900460ff16905092915050565b6111266112fc565b73ffffffffffffffffffffffffffffffffffffffff16611144610ce1565b73ffffffffffffffffffffffffffffffffffffffff161461119a576040517f08c379a000000000000000000000000000000000000000000000000000000000815260040161119190613414565b60405180910390fd5b600073ffffffffffffffffffffffffffffffffffffffff168173ffffffffffffffffffffffffffffffffffffffff16141561120a576040517f08c379a000000000000000000000000000000000000000000000000000000000815260040161120190613274565b60405180910390fd5b61121381611974565b50565b60007f780e9d63000000000000000000000000000000000000000000000000000000007bffffffffffffffffffffffffffffffffffffffffffffffffffffffff1916827bffffffffffffffffffffffffffffffffffffffffffffffffffffffff19161480611289575061128882611d73565b5b9050919050565b60008073ffffffffffffffffffffffffffffffffffffffff166002600084815260200190815260200160002060009054906101000a900473ffffffffffffffffffffffffffffffffffffffff1673ffffffffffffffffffffffffffffffffffffffff1614159050919050565b600033905090565b816004600083815260200190815260200160002060006101000a81548173ffffffffffffffffffffffffffffffffffffffff021916908373ffffffffffffffffffffffffffffffffffffffff160217905550808273ffffffffffffffffffffffffffffffffffffffff1661137783610aef565b73ffffffffffffffffffffffffffffffffffffffff167f8c5be1e5ebec7d5bd14f71427d1e84f3dd0314c0f7b2291e5b200ac8c7c3b92560405160405180910390a45050565b60006113c882611290565b611407576040517f08c379a00000000000000000000000000000000000000000000000000000000081526004016113fe90613314565b60405180910390fd5b600061141283610aef565b90508073ffffffffffffffffffffffffffffffffffffffff168473ffffffffffffffffffffffffffffffffffffffff1614806114545750611453818561108a565b5b8061149257508373ffffffffffffffffffffffffffffffffffffffff1661147a8461065d565b73ffffffffffffffffffffffffffffffffffffffff16145b91505092915050565b8273ffffffffffffffffffffffffffffffffffffffff166114bb82610aef565b73ffffffffffffffffffffffffffffffffffffffff1614611511576040517f08c379a000000000000000000000000000000000000000000000000000000000815260040161150890613294565b60405180910390fd5b600073ffffffffffffffffffffffffffffffffffffffff168273ffffffffffffffffffffffffffffffffffffffff161415611581576040517f08c379a0000000000000000000000000000000000000000000000000000000008152600401611578906132d4565b60405180910390fd5b61158c838383611e55565b611597600082611304565b6001600360008573ffffffffffffffffffffffffffffffffffffffff1673ffffffffffffffffffffffffffffffffffffffff16815260200190815260200160002060008282546115e79190613699565b925050819055506001600360008473ffffffffffffffffffffffffffffffffffffffff1673ffffffffffffffffffffffffffffffffffffffff168152602001908152602001600020600082825461163e9190613612565b92505081905550816002600083815260200190815260200160002060006101000a81548173ffffffffffffffffffffffffffffffffffffffff021916908373ffffffffffffffffffffffffffffffffffffffff160217905550808273ffffffffffffffffffffffffffffffffffffffff168473ffffffffffffffffffffffffffffffffffffffff167fddf252ad1be2c89b69c2b068fc378daa952ba7f163c4a11628f55a4df523b3ef60405160405180910390a46116fd838383611e65565b505050565b600081600001549050919050565b6001816000016000828254019250508190555050565b600073ffffffffffffffffffffffffffffffffffffffff168273ffffffffffffffffffffffffffffffffffffffff161415611796576040517f08c379a000000000000000000000000000000000000000000000000000000000815260040161178d906133b4565b60405180910390fd5b61179f81611290565b156117df576040517f08c379a00000000000000000000000000000000000000000000000000000000081526004016117d6906132b4565b60405180910390fd5b6117eb60008383611e55565b6001600360008473ffffffffffffffffffffffffffffffffffffffff1673ffffffffffffffffffffffffffffffffffffffff168152602001908152602001600020600082825461183b9190613612565b92505081905550816002600083815260200190815260200160002060006101000a81548173ffffffffffffffffffffffffffffffffffffffff021916908373ffffffffffffffffffffffffffffffffffffffff160217905550808273ffffffffffffffffffffffffffffffffffffffff16600073ffffffffffffffffffffffffffffffffffffffff167fddf252ad1be2c89b69c2b068fc378daa952ba7f163c4a11628f55a4df523b3ef60405160405180910390a46118fc60008383611e65565b5050565b61190982611290565b611948576040517f08c379a000000000000000000000000000000000000000000000000000000000815260040161193f90613394565b60405180910390fd5b8060066000848152602001908152602001600020908051906020019061196f92919061280b565b505050565b6000600760009054906101000a900473ffffffffffffffffffffffffffffffffffffffff16905081600760006101000a81548173ffffffffffffffffffffffffffffffffffffffff021916908373ffffffffffffffffffffffffffffffffffffffff1602179055508173ffffffffffffffffffffffffffffffffffffffff168173ffffffffffffffffffffffffffffffffffffffff167f8be0079c531659141344cd1fd0a4f28419497f9722a3daafe3b4186f6b6457e060405160405180910390a35050565b8173ffffffffffffffffffffffffffffffffffffffff168373ffffffffffffffffffffffffffffffffffffffff161415611aa9576040517f08c379a0000000000000000000000000000000000000000000000000000000008152600401611aa0906132f4565b60405180910390fd5b80600560008573ffffffffffffffffffffffffffffffffffffffff1673ffffffffffffffffffffffffffffffffffffffff16815260200190815260200160002060008473ffffffffffffffffffffffffffffffffffffffff1673ffffffffffffffffffffffffffffffffffffffff16815260200190815260200160002060006101000a81548160ff0219169083151502179055508173ffffffffffffffffffffffffffffffffffffffff168373ffffffffffffffffffffffffffffffffffffffff167f17307eab39ab6107e8899845ad3d59bd9653f200f220920489ca2b5937696c3183604051611b9a91906131f7565b60405180910390a3505050565b611bb284848461149b565b611bbe84848484611e6a565b611bfd576040517f08c379a0000000000000000000000000000000000000000000000000000000008152600401611bf490613254565b60405180910390fd5b50505050565b6060611c0e82611290565b611c4d576040517f08c379a0000000000000000000000000000000000000000000000000000000008152600401611c44906133d4565b60405180910390fd5b6000600660008481526020019081526020016000208054611c6d90613783565b80601f0160208091040260200160405190810160405280929190818152602001828054611c9990613783565b8015611ce65780601f10611cbb57610100808354040283529160200191611ce6565b820191906000526020600020905b815481529060010190602001808311611cc957829003601f168201915b505050505090506000611cf7612001565b9050600081511415611d0d578192505050611d50565b600082511115611d42578082604051602001611d2a92919061314a565b60405160208183030381529060405292505050611d50565b611d4b8461203e565b925050505b919050565b611d6f8282604051806020016040528060008152506120e5565b5050565b60007f80ac58cd000000000000000000000000000000000000000000000000000000007bffffffffffffffffffffffffffffffffffffffffffffffffffffffff1916827bffffffffffffffffffffffffffffffffffffffffffffffffffffffff19161480611e3e57507f5b5e139f000000000000000000000000000000000000000000000000000000007bffffffffffffffffffffffffffffffffffffffffffffffffffffffff1916827bffffffffffffffffffffffffffffffffffffffffffffffffffffffff1916145b80611e4e5750611e4d82612140565b5b9050919050565b611e608383836121aa565b505050565b505050565b6000611e8b8473ffffffffffffffffffffffffffffffffffffffff166122be565b15611ff4578373ffffffffffffffffffffffffffffffffffffffff1663150b7a02611eb46112fc565b8786866040518563ffffffff1660e01b8152600401611ed69493929190613189565b602060405180830381600087803b158015611ef057600080fd5b505af1925050508015611f2157506040513d601f19601f82011682018060405250810190611f1e9190612c20565b60015b611fa4573d8060008114611f51576040519150601f19603f3d011682016040523d82523d6000602084013e611f56565b606091505b50600081511415611f9c576040517f08c379a0000000000000000000000000000000000000000000000000000000008152600401611f9390613254565b60405180910390fd5b805181602001fd5b63150b7a0260e01b7bffffffffffffffffffffffffffffffffffffffffffffffffffffffff1916817bffffffffffffffffffffffffffffffffffffffffffffffffffffffff191614915050611ff9565b600190505b949350505050565b60606040518060400160405280600781526020017f697066733a2f2f00000000000000000000000000000000000000000000000000815250905090565b606061204982611290565b612088576040517f08c379a000000000000000000000000000000000000000000000000000000000815260040161207f90613434565b60405180910390fd5b6000612092612001565b905060008151116120b257604051806020016040528060008152506120dd565b806120bc846122e1565b6040516020016120cd92919061314a565b6040516020818303038152906040525b915050919050565b6120ef8383611726565b6120fc6000848484611e6a565b61213b576040517f08c379a000000000000000000000000000000000000000000000000000000000815260040161213290613254565b60405180910390fd5b505050565b60007f01ffc9a7000000000000000000000000000000000000000000000000000000007bffffffffffffffffffffffffffffffffffffffffffffffffffffffff1916827bffffffffffffffffffffffffffffffffffffffffffffffffffffffff1916149050919050565b6121b583838361248e565b600073ffffffffffffffffffffffffffffffffffffffff168373ffffffffffffffffffffffffffffffffffffffff1614156121f8576121f381612493565b612237565b8173ffffffffffffffffffffffffffffffffffffffff168373ffffffffffffffffffffffffffffffffffffffff16146122365761223583826124dc565b5b5b600073ffffffffffffffffffffffffffffffffffffffff168273ffffffffffffffffffffffffffffffffffffffff16141561227a5761227581612649565b6122b9565b8273ffffffffffffffffffffffffffffffffffffffff168273ffffffffffffffffffffffffffffffffffffffff16146122b8576122b7828261278c565b5b5b505050565b6000808273ffffffffffffffffffffffffffffffffffffffff163b119050919050565b60606000821415612329576040518060400160405280600181526020017f30000000000000000000000000000000000000000000000000000000000000008152509050612489565b600082905060005b6000821461235b578080612344906137e6565b915050600a826123549190613668565b9150612331565b60008167ffffffffffffffff81111561239d577f4e487b7100000000000000000000000000000000000000000000000000000000600052604160045260246000fd5b6040519080825280601f01601f1916602001820160405280156123cf5781602001600182028036833780820191505090505b5090505b60008514612482576001826123e89190613699565b9150600a856123f7919061382f565b60306124039190613612565b60f81b81838151811061243f577f4e487b7100000000000000000000000000000000000000000000000000000000600052603260045260246000fd5b60200101907effffffffffffffffffffffffffffffffffffffffffffffffffffffffffffff1916908160001a905350600a8561247b9190613668565b94506123d3565b8093505050505b919050565b505050565b600a80549050600b600083815260200190815260200160002081905550600a81908060018154018082558091505060019003906000526020600020016000909190919091505550565b600060016124e984610ba1565b6124f39190613699565b90506000600960008481526020019081526020016000205490508181146125d8576000600860008673ffffffffffffffffffffffffffffffffffffffff1673ffffffffffffffffffffffffffffffffffffffff168152602001908152602001600020600084815260200190815260200160002054905080600860008773ffffffffffffffffffffffffffffffffffffffff1673ffffffffffffffffffffffffffffffffffffffff168152602001908152602001600020600084815260200190815260200160002081905550816009600083815260200190815260200160002081905550505b6009600084815260200190815260200160002060009055600860008573ffffffffffffffffffffffffffffffffffffffff1673ffffffffffffffffffffffffffffffffffffffff16815260200190815260200160002060008381526020019081526020016000206000905550505050565b60006001600a8054905061265d9190613699565b90506000600b60008481526020019081526020016000205490506000600a83815481106126b3577f4e487b7100000000000000000000000000000000000000000000000000000000600052603260045260246000fd5b9060005260206000200154905080600a83815481106126fb577f4e487b7100000000000000000000000000000000000000000000000000000000600052603260045260246000fd5b906000526020600020018190555081600b600083815260200190815260200160002081905550600b600085815260200190815260200160002060009055600a805480612770577f4e487b7100000000000000000000000000000000000000000000000000000000600052603160045260246000fd5b6001900381819060005260206000200160009055905550505050565b600061279783610ba1565b905081600860008573ffffffffffffffffffffffffffffffffffffffff1673ffffffffffffffffffffffffffffffffffffffff168152602001908152602001600020600083815260200190815260200160002081905550806009600084815260200190815260200160002081905550505050565b82805461281790613783565b90600052602060002090601f0160209004810192826128395760008555612880565b82601f1061285257805160ff1916838001178555612880565b82800160010185558215612880579182015b8281111561287f578251825591602001919060010190612864565b5b50905061288d9190612891565b5090565b5b808211156128aa576000816000905550600101612892565b5090565b60006128c16128bc84613534565b61350f565b9050828152602081018484840111156128d957600080fd5b6128e4848285613741565b509392505050565b60006128ff6128fa84613565565b61350f565b90508281526020810184848401111561291757600080fd5b612922848285613741565b509392505050565b60008135905061293981613f13565b92915050565b60008135905061294e81613f2a565b92915050565b60008135905061296381613f41565b92915050565b60008151905061297881613f41565b92915050565b600082601f83011261298f57600080fd5b813561299f8482602086016128ae565b91505092915050565b600082601f8301126129b957600080fd5b81356129c98482602086016128ec565b91505092915050565b6000813590506129e181613f58565b92915050565b6000815190506129f681613f58565b92915050565b600060208284031215612a0e57600080fd5b6000612a1c8482850161292a565b91505092915050565b60008060408385031215612a3857600080fd5b6000612a468582860161292a565b9250506020612a578582860161292a565b9150509250929050565b600080600060608486031215612a7657600080fd5b6000612a848682870161292a565b9350506020612a958682870161292a565b9250506040612aa6868287016129d2565b9150509250925092565b60008060008060808587031215612ac657600080fd5b6000612ad48782880161292a565b9450506020612ae58782880161292a565b9350506040612af6878288016129d2565b925050606085013567ffffffffffffffff811115612b1357600080fd5b612b1f8782880161297e565b91505092959194509250565b60008060408385031215612b3e57600080fd5b6000612b4c8582860161292a565b9250506020612b5d8582860161293f565b9150509250929050565b60008060408385031215612b7a57600080fd5b6000612b888582860161292a565b925050602083013567ffffffffffffffff811115612ba557600080fd5b612bb1858286016129a8565b9150509250929050565b60008060408385031215612bce57600080fd5b6000612bdc8582860161292a565b9250506020612bed858286016129d2565b9150509250929050565b600060208284031215612c0957600080fd5b6000612c1784828501612954565b91505092915050565b600060208284031215612c3257600080fd5b6000612c4084828501612969565b91505092915050565b600060208284031215612c5b57600080fd5b600082013567ffffffffffffffff811115612c7557600080fd5b612c81848285016129a8565b91505092915050565b600060208284031215612c9c57600080fd5b6000612caa848285016129d2565b91505092915050565b600060208284031215612cc557600080fd5b6000612cd3848285016129e7565b91505092915050565b6000612ce88383613115565b60208301905092915050565b612cfd816136cd565b82525050565b6000612d0e826135a6565b612d1881856135d4565b9350612d2383613596565b8060005b83811015612d54578151612d3b8882612cdc565b9750612d46836135c7565b925050600181019050612d27565b5085935050505092915050565b612d6a816136df565b82525050565b6000612d7b826135b1565b612d8581856135e5565b9350612d95818560208601613750565b612d9e8161391c565b840191505092915050565b6000612db4826135bc565b612dbe81856135f6565b9350612dce818560208601613750565b612dd78161391c565b840191505092915050565b6000612ded826135bc565b612df78185613607565b9350612e07818560208601613750565b80840191505092915050565b6000612e20602b836135f6565b9150612e2b8261392d565b604082019050919050565b6000612e436032836135f6565b9150612e4e8261397c565b604082019050919050565b6000612e666026836135f6565b9150612e71826139cb565b604082019050919050565b6000612e896025836135f6565b9150612e9482613a1a565b604082019050919050565b6000612eac601c836135f6565b9150612eb782613a69565b602082019050919050565b6000612ecf6024836135f6565b9150612eda82613a92565b604082019050919050565b6000612ef26019836135f6565b9150612efd82613ae1565b602082019050919050565b6000612f15602c836135f6565b9150612f2082613b0a565b604082019050919050565b6000612f386038836135f6565b9150612f4382613b59565b604082019050919050565b6000612f5b602a836135f6565b9150612f6682613ba8565b604082019050919050565b6000612f7e6029836135f6565b9150612f8982613bf7565b604082019050919050565b6000612fa1602e836135f6565b9150612fac82613c46565b604082019050919050565b6000612fc46020836135f6565b9150612fcf82613c95565b602082019050919050565b6000612fe76031836135f6565b9150612ff282613cbe565b604082019050919050565b600061300a602c836135f6565b915061301582613d0d565b604082019050919050565b600061302d6020836135f6565b915061303882613d5c565b602082019050919050565b6000613050602f836135f6565b915061305b82613d85565b604082019050919050565b60006130736021836135f6565b915061307e82613dd4565b604082019050919050565b60006130966031836135f6565b91506130a182613e23565b604082019050919050565b60006130b96013836135f6565b91506130c482613e72565b602082019050919050565b60006130dc602c836135f6565b91506130e782613e9b565b604082019050919050565b60006130ff600f836135f6565b915061310a82613eea565b602082019050919050565b61311e81613737565b82525050565b61312d81613737565b82525050565b600061313f8284612de2565b915081905092915050565b60006131568285612de2565b91506131628284612de2565b91508190509392505050565b60006020820190506131836000830184612cf4565b92915050565b600060808201905061319e6000830187612cf4565b6131ab6020830186612cf4565b6131b86040830185613124565b81810360608301526131ca8184612d70565b905095945050505050565b600060208201905081810360008301526131ef8184612d03565b905092915050565b600060208201905061320c6000830184612d61565b92915050565b6000602082019050818103600083015261322c8184612da9565b905092915050565b6000602082019050818103600083015261324d81612e13565b9050919050565b6000602082019050818103600083015261326d81612e36565b9050919050565b6000602082019050818103600083015261328d81612e59565b9050919050565b600060208201905081810360008301526132ad81612e7c565b9050919050565b600060208201905081810360008301526132cd81612e9f565b9050919050565b600060208201905081810360008301526132ed81612ec2565b9050919050565b6000602082019050818103600083015261330d81612ee5565b9050919050565b6000602082019050818103600083015261332d81612f08565b9050919050565b6000602082019050818103600083015261334d81612f2b565b9050919050565b6000602082019050818103600083015261336d81612f4e565b9050919050565b6000602082019050818103600083015261338d81612f71565b9050919050565b600060208201905081810360008301526133ad81612f94565b9050919050565b600060208201905081810360008301526133cd81612fb7565b9050919050565b600060208201905081810360008301526133ed81612fda565b9050919050565b6000602082019050818103600083015261340d81612ffd565b9050919050565b6000602082019050818103600083015261342d81613020565b9050919050565b6000602082019050818103600083015261344d81613043565b9050919050565b6000602082019050818103600083015261346d81613066565b9050919050565b6000602082019050818103600083015261348d81613089565b9050919050565b600060208201905081810360008301526134ad816130ac565b9050919050565b600060208201905081810360008301526134cd816130cf565b9050919050565b600060208201905081810360008301526134ed816130f2565b9050919050565b60006020820190506135096000830184613124565b92915050565b600061351961352a565b905061352582826137b5565b919050565b6000604051905090565b600067ffffffffffffffff82111561354f5761354e6138ed565b5b6135588261391c565b9050602081019050919050565b600067ffffffffffffffff8211156135805761357f6138ed565b5b6135898261391c565b9050602081019050919050565b6000819050602082019050919050565b600081519050919050565b600081519050919050565b600081519050919050565b6000602082019050919050565b600082825260208201905092915050565b600082825260208201905092915050565b600082825260208201905092915050565b600081905092915050565b600061361d82613737565b915061362883613737565b9250827fffffffffffffffffffffffffffffffffffffffffffffffffffffffffffffffff0382111561365d5761365c613860565b5b828201905092915050565b600061367382613737565b915061367e83613737565b92508261368e5761368d61388f565b5b828204905092915050565b60006136a482613737565b91506136af83613737565b9250828210156136c2576136c1613860565b5b828203905092915050565b60006136d882613717565b9050919050565b60008115159050919050565b60007fffffffff0000000000000000000000000000000000000000000000000000000082169050919050565b600073ffffffffffffffffffffffffffffffffffffffff82169050919050565b6000819050919050565b82818337600083830152505050565b60005b8381101561376e578082015181840152602081019050613753565b8381111561377d576000848401525b50505050565b6000600282049050600182168061379b57607f821691505b602082108114156137af576137ae6138be565b5b50919050565b6137be8261391c565b810181811067ffffffffffffffff821117156137dd576137dc6138ed565b5b80604052505050565b60006137f182613737565b91507fffffffffffffffffffffffffffffffffffffffffffffffffffffffffffffffff82141561382457613823613860565b5b600182019050919050565b600061383a82613737565b915061384583613737565b9250826138555761385461388f565b5b828206905092915050565b7f4e487b7100000000000000000000000000000000000000000000000000000000600052601160045260246000fd5b7f4e487b7100000000000000000000000000000000000000000000000000000000600052601260045260246000fd5b7f4e487b7100000000000000000000000000000000000000000000000000000000600052602260045260246000fd5b7f4e487b7100000000000000000000000000000000000000000000000000000000600052604160045260246000fd5b6000601f19601f8301169050919050565b7f455243373231456e756d657261626c653a206f776e657220696e646578206f7560008201527f74206f6620626f756e6473000000000000000000000000000000000000000000602082015250565b7f4552433732313a207472616e7366657220746f206e6f6e20455243373231526560008201527f63656976657220696d706c656d656e7465720000000000000000000000000000602082015250565b7f4f776e61626c653a206e6577206f776e657220697320746865207a65726f206160008201527f6464726573730000000000000000000000000000000000000000000000000000602082015250565b7f4552433732313a207472616e736665722066726f6d20696e636f72726563742060008201527f6f776e6572000000000000000000000000000000000000000000000000000000602082015250565b7f4552433732313a20746f6b656e20616c7265616479206d696e74656400000000600082015250565b7f4552433732313a207472616e7366657220746f20746865207a65726f2061646460008201527f7265737300000000000000000000000000000000000000000000000000000000602082015250565b7f4552433732313a20617070726f766520746f2063616c6c657200000000000000600082015250565b7f4552433732313a206f70657261746f7220717565727920666f72206e6f6e657860008201527f697374656e7420746f6b656e0000000000000000000000000000000000000000602082015250565b7f4552433732313a20617070726f76652063616c6c6572206973206e6f74206f7760008201527f6e6572206e6f7220617070726f76656420666f7220616c6c0000000000000000602082015250565b7f4552433732313a2062616c616e636520717565727920666f7220746865207a6560008201527f726f206164647265737300000000000000000000000000000000000000000000602082015250565b7f4552433732313a206f776e657220717565727920666f72206e6f6e657869737460008201527f656e7420746f6b656e0000000000000000000000000000000000000000000000602082015250565b7f45524337323155524953746f726167653a2055524920736574206f66206e6f6e60008201527f6578697374656e7420746f6b656e000000000000000000000000000000000000602082015250565b7f4552433732313a206d696e7420746f20746865207a65726f2061646472657373600082015250565b7f45524337323155524953746f726167653a2055524920717565727920666f722060008201527f6e6f6e6578697374656e7420746f6b656e000000000000000000000000000000602082015250565b7f4552433732313a20617070726f76656420717565727920666f72206e6f6e657860008201527f697374656e7420746f6b656e0000000000000000000000000000000000000000602082015250565b7f4f776e61626c653a2063616c6c6572206973206e6f7420746865206f776e6572600082015250565b7f4552433732314d657461646174613a2055524920717565727920666f72206e6f60008201527f6e6578697374656e7420746f6b656e0000000000000000000000000000000000602082015250565b7f4552433732313a20617070726f76616c20746f2063757272656e74206f776e6560008201527f7200000000000000000000000000000000000000000000000000000000000000602082015250565b7f4552433732313a207472616e736665722063616c6c6572206973206e6f74206f60008201527f776e6572206e6f7220617070726f766564000000000000000000000000000000602082015250565b7f4e465420616c7265616479206d696e7465642100000000000000000000000000600082015250565b7f455243373231456e756d657261626c653a20676c6f62616c20696e646578206f60008201527f7574206f6620626f756e64730000000000000000000000000000000000000000602082015250565b7f4e65656420746f20706179207570210000000000000000000000000000000000600082015250565b613f1c816136cd565b8114613f2757600080fd5b50565b613f33816136df565b8114613f3e57600080fd5b50565b613f4a816136eb565b8114613f5557600080fd5b50565b613f6181613737565b8114613f6c57600080fd5b5056fea2646970667358221220b6d3e62a9e9ac46e4d4c3d38458a2fd099ccaf6b527b91035d9a0983eab7225d64736f6c63430008040033",
  "linkReferences": {},
  "deployedLinkReferences": {}
}