{
  "_format": "hh-sol-artifact-1",
  "contractName": "MyToken",
  "sourceName": "contracts/nft.sol",
  "abi": [
    {
      "inputs": [],
      "stateMutability": "nonpayable",
      "type": "constructor"
    },
    {
      "anonymous": false,
      "inputs": [
        {
          "indexed": true,
          "internalType": "address",
          "name": "owner",
          "type": "address"
        },
        {
          "indexed": true,
          "internalType": "address",
          "name": "approved",
          "type": "address"
        },
        {
          "indexed": true,
          "internalType": "uint256",
          "name": "tokenId",
          "type": "uint256"
        }
      ],
      "name": "Approval",
      "type": "event"
    },
    {
      "anonymous": false,
      "inputs": [
        {
          "indexed": true,
          "internalType": "address",
          "name": "owner",
          "type": "address"
        },
        {
          "indexed": true,
          "internalType": "address",
          "name": "operator",
          "type": "address"
        },
        {
          "indexed": false,
          "internalType": "bool",
          "name": "approved",
          "type": "bool"
        }
      ],
      "name": "ApprovalForAll",
      "type": "event"
    },
    {
      "anonymous": false,
      "inputs": [
        {
          "indexed": true,
          "internalType": "address",
          "name": "previousOwner",
          "type": "address"
        },
        {
          "indexed": true,
          "internalType": "address",
          "name": "newOwner",
          "type": "address"
        }
      ],
      "name": "OwnershipTransferred",
      "type": "event"
    },
    {
      "anonymous": false,
      "inputs": [
        {
          "indexed": true,
          "internalType": "address",
          "name": "from",
          "type": "address"
        },
        {
          "indexed": true,
          "internalType": "address",
          "name": "to",
          "type": "address"
        },
        {
          "indexed": true,
          "internalType": "uint256",
          "name": "tokenId",
          "type": "uint256"
        }
      ],
      "name": "Transfer",
      "type": "event"
    },
    {
      "inputs": [
        {
          "internalType": "address",
          "name": "to",
          "type": "address"
        },
        {
          "internalType": "uint256",
          "name": "tokenId",
          "type": "uint256"
        }
      ],
      "name": "approve",
      "outputs": [],
      "stateMutability": "nonpayable",
      "type": "function"
    },
    {
      "inputs": [
        {
          "internalType": "address",
          "name": "owner",
          "type": "address"
        }
      ],
      "name": "balanceOf",
      "outputs": [
        {
          "internalType": "uint256",
          "name": "",
          "type": "uint256"
        }
      ],
      "stateMutability": "view",
      "type": "function"
    },
    {
      "inputs": [
        {
          "internalType": "uint256",
          "name": "tokenId",
          "type": "uint256"
        }
      ],
      "name": "getApproved",
      "outputs": [
        {
          "internalType": "address",
          "name": "",
          "type": "address"
        }
      ],
      "stateMutability": "view",
      "type": "function"
    },
    {
      "inputs": [
        {
          "internalType": "address",
          "name": "user",
          "type": "address"
        }
      ],
      "name": "getBalancesOfUser",
      "outputs": [
        {
          "internalType": "uint256",
          "name": "",
          "type": "uint256"
        }
      ],
      "stateMutability": "view",
      "type": "function"
    },
    {
      "inputs": [
        {
          "internalType": "address",
          "name": "contractAddress",
          "type": "address"
        },
        {
          "internalType": "address",
          "name": "_owner",
          "type": "address"
        }
      ],
      "name": "getTokenIds",
      "outputs": [
        {
          "internalType": "uint256[]",
          "name": "",
          "type": "uint256[]"
        }
      ],
      "stateMutability": "view",
      "type": "function"
    },
    {
      "inputs": [
        {
          "internalType": "address",
          "name": "owner",
          "type": "address"
        },
        {
          "internalType": "address",
          "name": "operator",
          "type": "address"
        }
      ],
      "name": "isApprovedForAll",
      "outputs": [
        {
          "internalType": "bool",
          "name": "",
          "type": "bool"
        }
      ],
      "stateMutability": "view",
      "type": "function"
    },
    {
      "inputs": [
        {
          "internalType": "string",
          "name": "uri",
          "type": "string"
        }
      ],
      "name": "isContentOwned",
      "outputs": [
        {
          "internalType": "bool",
          "name": "",
          "type": "bool"
        }
      ],
      "stateMutability": "view",
      "type": "function"
    },
    {
      "inputs": [
        {
          "internalType": "address",
          "name": "contractAddress",
          "type": "address"
        },
        {
          "internalType": "address",
          "name": "owner",
          "type": "address"
        }
      ],
      "name": "listUserNFTs",
      "outputs": [
        {
          "internalType": "uint256[]",
          "name": "",
          "type": "uint256[]"
        }
      ],
      "stateMutability": "view",
      "type": "function"
    },
    {
      "inputs": [],
      "name": "name",
      "outputs": [
        {
          "internalType": "string",
          "name": "",
          "type": "string"
        }
      ],
      "stateMutability": "view",
      "type": "function"
    },
    {
      "inputs": [],
      "name": "owner",
      "outputs": [
        {
          "internalType": "address",
          "name": "",
          "type": "address"
        }
      ],
      "stateMutability": "view",
      "type": "function"
    },
    {
      "inputs": [
        {
          "internalType": "uint256",
          "name": "tokenId",
          "type": "uint256"
        }
      ],
      "name": "ownerOf",
      "outputs": [
        {
          "internalType": "address",
          "name": "",
          "type": "address"
        }
      ],
      "stateMutability": "view",
      "type": "function"
    },
    {
      "inputs": [
        {
          "internalType": "address",
          "name": "contractAddress",
          "type": "address"
        },
        {
          "internalType": "address",
          "name": "tokenOwner",
          "type": "address"
        }
      ],
      "name": "ownerOfTokenIds",
      "outputs": [
        {
          "internalType": "uint256[]",
          "name": "",
          "type": "uint256[]"
        }
      ],
      "stateMutability": "view",
      "type": "function"
    },
    {
      "inputs": [
        {
          "internalType": "address",
          "name": "recipient",
          "type": "address"
        },
        {
          "internalType": "string",
          "name": "metadataURI",
          "type": "string"
        }
      ],
      "name": "payToMint",
      "outputs": [
        {
          "internalType": "uint256",
          "name": "",
          "type": "uint256"
        }
      ],
      "stateMutability": "payable",
      "type": "function"
    },
    {
      "inputs": [],
      "name": "renounceOwnership",
      "outputs": [],
      "stateMutability": "nonpayable",
      "type": "function"
    },
    {
      "inputs": [
        {
          "internalType": "address",
          "name": "to",
          "type": "address"
        },
        {
          "internalType": "string",
          "name": "uri",
          "type": "string"
        }
      ],
      "name": "safeMint",
      "outputs": [],
      "stateMutability": "nonpayable",
      "type": "function"
    },
    {
      "inputs": [
        {
          "internalType": "address",
          "name": "from",
          "type": "address"
        },
        {
          "internalType": "address",
          "name": "to",
          "type": "address"
        },
        {
          "internalType": "uint256",
          "name": "tokenId",
          "type": "uint256"
        }
      ],
      "name": "safeTransferFrom",
      "outputs": [],
      "stateMutability": "nonpayable",
      "type": "function"
    },
    {
      "inputs": [
        {
          "internalType": "address",
          "name": "from",
          "type": "address"
        },
        {
          "internalType": "address",
          "name": "to",
          "type": "address"
        },
        {
          "internalType": "uint256",
          "name": "tokenId",
          "type": "uint256"
        },
        {
          "internalType": "bytes",
          "name": "_data",
          "type": "bytes"
        }
      ],
      "name": "safeTransferFrom",
      "outputs": [],
      "stateMutability": "nonpayable",
      "type": "function"
    },
    {
      "inputs": [
        {
          "internalType": "address",
          "name": "operator",
          "type": "address"
        },
        {
          "internalType": "bool",
          "name": "approved",
          "type": "bool"
        }
      ],
      "name": "setApprovalForAll",
      "outputs": [],
      "stateMutability": "nonpayable",
      "type": "function"
    },
    {
      "inputs": [
        {
          "internalType": "bytes4",
          "name": "interfaceId",
          "type": "bytes4"
        }
      ],
      "name": "supportsInterface",
      "outputs": [
        {
          "internalType": "bool",
          "name": "",
          "type": "bool"
        }
      ],
      "stateMutability": "view",
      "type": "function"
    },
    {
      "inputs": [],
      "name": "symbol",
      "outputs": [
        {
          "internalType": "string",
          "name": "",
          "type": "string"
        }
      ],
      "stateMutability": "view",
      "type": "function"
    },
    {
      "inputs": [
        {
          "internalType": "uint256",
          "name": "index",
          "type": "uint256"
        }
      ],
      "name": "tokenByIndex",
      "outputs": [
        {
          "internalType": "uint256",
          "name": "",
          "type": "uint256"
        }
      ],
      "stateMutability": "view",
      "type": "function"
    },
    {
      "inputs": [
        {
          "internalType": "address",
          "name": "owner",
          "type": "address"
        },
        {
          "internalType": "uint256",
          "name": "index",
          "type": "uint256"
        }
      ],
      "name": "tokenOfOwnerByIndex",
      "outputs": [
        {
          "internalType": "uint256",
          "name": "",
          "type": "uint256"
        }
      ],
      "stateMutability": "view",
      "type": "function"
    },
    {
      "inputs": [
        {
          "internalType": "uint256",
          "name": "tokenId",
          "type": "uint256"
        }
      ],
      "name": "tokenURI",
      "outputs": [
        {
          "internalType": "string",
          "name": "",
          "type": "string"
        }
      ],
      "stateMutability": "view",
      "type": "function"
    },
    {
      "inputs": [],
      "name": "totalSupply",
      "outputs": [
        {
          "internalType": "uint256",
          "name": "",
          "type": "uint256"
        }
      ],
      "stateMutability": "view",
      "type": "function"
    },
    {
      "inputs": [
        {
          "internalType": "address",
          "name": "from",
          "type": "address"
        },
        {
          "internalType": "address",
          "name": "to",
          "type": "address"
        },
        {
          "internalType": "uint256",
          "name": "tokenId",
          "type": "uint256"
        }
      ],
      "name": "transferFrom",
      "outputs": [],
      "stateMutability": "nonpayable",
      "type": "function"
    },
    {
      "inputs": [
        {
          "internalType": "address",
          "name": "newOwner",
          "type": "address"
        }
      ],
      "name": "transferOwnership",
      "outputs": [],
      "stateMutability": "nonpayable",
      "type": "function"
    }
  ],
  "bytecode": "0x60806040523480156200001157600080fd5b506040518060400160405280600781526020017f4d79546f6b656e000000000000000000000000000000000000000000000000008152506040518060400160405280600381526020017f4142430000000000000000000000000000000000000000000000000000000000815250816000908051906020019062000096929190620001a6565b508060019080519060200190620000af929190620001a6565b505050620000d2620000c6620000d860201b60201c565b620000e060201b60201c565b620002bb565b600033905090565b6000600760009054906101000a900473ffffffffffffffffffffffffffffffffffffffff16905081600760006101000a81548173ffffffffffffffffffffffffffffffffffffffff021916908373ffffffffffffffffffffffffffffffffffffffff1602179055508173ffffffffffffffffffffffffffffffffffffffff168173ffffffffffffffffffffffffffffffffffffffff167f8be0079c531659141344cd1fd0a4f28419497f9722a3daafe3b4186f6b6457e060405160405180910390a35050565b828054620001b49062000256565b90600052602060002090601f016020900481019282620001d8576000855562000224565b82601f10620001f357805160ff191683800117855562000224565b8280016001018555821562000224579182015b828111156200022357825182559160200191906001019062000206565b5b50905062000233919062000237565b5090565b5b808211156200025257600081600090555060010162000238565b5090565b600060028204905060018216806200026f57607f821691505b602082108114156200028657620002856200028c565b5b50919050565b7f4e487b7100000000000000000000000000000000000000000000000000000000600052602260045260246000fd5b6147c880620002cb6000396000f3fe6080604052600436106101815760003560e01c806370a08231116100d1578063a22cb4651161008a578063d190c1d911610064578063d190c1d9146105e5578063d204c45e14610622578063e985e9c51461064b578063f2fde38b1461068857610181565b8063a22cb46514610556578063b88d4fde1461057f578063c87b56dd146105a857610181565b806370a0823114610432578063715018a61461046f5780638da5cb5b1461048657806395d89b41146104b15780639ae01292146104dc5780639f1cabc61461051957610181565b80632bf65d4a1161013e5780634f6ccce7116101185780634f6ccce71461034b578063615fd9e2146103885780636352211e146103b857806367b85a35146103f557610181565b80632bf65d4a146102a85780632f745c59146102e557806342842e0e1461032257610181565b806301ffc9a71461018657806306fdde03146101c3578063081812fc146101ee578063095ea7b31461022b57806318160ddd1461025457806323b872dd1461027f575b600080fd5b34801561019257600080fd5b506101ad60048036038101906101a89190613391565b6106b1565b6040516101ba91906139ba565b60405180910390f35b3480156101cf57600080fd5b506101d86106c3565b6040516101e591906139d5565b60405180910390f35b3480156101fa57600080fd5b5061021560048036038101906102109190613424565b610755565b6040516102229190613908565b60405180910390f35b34801561023757600080fd5b50610252600480360381019061024d9190613355565b6107da565b005b34801561026057600080fd5b506102696108f2565b6040516102769190613d17565b60405180910390f35b34801561028b57600080fd5b506102a660048036038101906102a191906131fb565b6108ff565b005b3480156102b457600080fd5b506102cf60048036038101906102ca9190613196565b61095f565b6040516102dc9190613d17565b60405180910390f35b3480156102f157600080fd5b5061030c60048036038101906103079190613355565b6109a8565b6040516103199190613d17565b60405180910390f35b34801561032e57600080fd5b50610349600480360381019061034491906131fb565b610a4d565b005b34801561035757600080fd5b50610372600480360381019061036d9190613424565b610a6d565b60405161037f9190613d17565b60405180910390f35b6103a2600480360381019061039d9190613301565b610b04565b6040516103af9190613d17565b60405180910390f35b3480156103c457600080fd5b506103df60048036038101906103da9190613424565b610d42565b6040516103ec9190613908565b60405180910390f35b34801561040157600080fd5b5061041c600480360381019061041791906131bf565b610df4565b6040516104299190613998565b60405180910390f35b34801561043e57600080fd5b5061045960048036038101906104549190613196565b610fb1565b6040516104669190613d17565b60405180910390f35b34801561047b57600080fd5b50610484611069565b005b34801561049257600080fd5b5061049b6110f1565b6040516104a89190613908565b60405180910390f35b3480156104bd57600080fd5b506104c661111b565b6040516104d391906139d5565b60405180910390f35b3480156104e857600080fd5b5061050360048036038101906104fe91906131bf565b6111ad565b6040516105109190613998565b60405180910390f35b34801561052557600080fd5b50610540600480360381019061053b91906133e3565b61133a565b60405161054d91906139ba565b60405180910390f35b34801561056257600080fd5b5061057d600480360381019061057891906132c5565b611375565b005b34801561058b57600080fd5b506105a660048036038101906105a1919061324a565b61138b565b005b3480156105b457600080fd5b506105cf60048036038101906105ca9190613424565b6113ed565b6040516105dc91906139d5565b60405180910390f35b3480156105f157600080fd5b5061060c600480360381019061060791906131bf565b6113ff565b6040516106199190613998565b60405180910390f35b34801561062e57600080fd5b5061064960048036038101906106449190613301565b61157d565b005b34801561065757600080fd5b50610672600480360381019061066d91906131bf565b61162a565b60405161067f91906139ba565b60405180910390f35b34801561069457600080fd5b506106af60048036038101906106aa9190613196565b6116be565b005b60006106bc826117b6565b9050919050565b6060600080546106d290613fa6565b80601f01602080910402602001604051908101604052809291908181526020018280546106fe90613fa6565b801561074b5780601f106107205761010080835404028352916020019161074b565b820191906000526020600020905b81548152906001019060200180831161072e57829003601f168201915b5050505050905090565b600061076082611830565b61079f576040517f08c379a000000000000000000000000000000000000000000000000000000000815260040161079690613c17565b60405180910390fd5b6004600083815260200190815260200160002060009054906101000a900473ffffffffffffffffffffffffffffffffffffffff169050919050565b60006107e582610d42565b90508073ffffffffffffffffffffffffffffffffffffffff168373ffffffffffffffffffffffffffffffffffffffff161415610856576040517f08c379a000000000000000000000000000000000000000000000000000000000815260040161084d90613c77565b60405180910390fd5b8073ffffffffffffffffffffffffffffffffffffffff1661087561189c565b73ffffffffffffffffffffffffffffffffffffffff1614806108a457506108a38161089e61189c565b61162a565b5b6108e3576040517f08c379a00000000000000000000000000000000000000000000000000000000081526004016108da90613b57565b60405180910390fd5b6108ed83836118a4565b505050565b6000600a80549050905090565b61091061090a61189c565b8261195d565b61094f576040517f08c379a000000000000000000000000000000000000000000000000000000000815260040161094690613c97565b60405180910390fd5b61095a838383611a3b565b505050565b6000600e60008373ffffffffffffffffffffffffffffffffffffffff1673ffffffffffffffffffffffffffffffffffffffff168152602001908152602001600020549050919050565b60006109b383610fb1565b82106109f4576040517f08c379a00000000000000000000000000000000000000000000000000000000081526004016109eb90613a57565b60405180910390fd5b600860008473ffffffffffffffffffffffffffffffffffffffff1673ffffffffffffffffffffffffffffffffffffffff168152602001908152602001600020600083815260200190815260200160002054905092915050565b610a688383836040518060200160405280600081525061138b565b505050565b6000610a776108f2565b8210610ab8576040517f08c379a0000000000000000000000000000000000000000000000000000000008152600401610aaf90613cd7565b60405180910390fd5b600a8281548110610af2577f4e487b7100000000000000000000000000000000000000000000000000000000600052603260045260246000fd5b90600052602060002001549050919050565b60006001600d83604051610b1891906138cd565b908152602001604051809103902060009054906101000a900460ff1660ff161415610b78576040517f08c379a0000000000000000000000000000000000000000000000000000000008152600401610b6f90613cb7565b60405180910390fd5b66b1a2bc2ec50000341015610bc2576040517f08c379a0000000000000000000000000000000000000000000000000000000008152600401610bb990613cf7565b60405180910390fd5b6000610bce600c611ca2565b9050610bda600c611cb0565b6001600d84604051610bec91906138cd565b908152602001604051809103902060006101000a81548160ff021916908360ff160217905550610c1c8482611cc6565b610c268184611ea0565b600e60008573ffffffffffffffffffffffffffffffffffffffff1673ffffffffffffffffffffffffffffffffffffffff1681526020019081526020016000206000815480929190610c7690614009565b9190505550610cba6040518060400160405280600b81526020017f726563697069656e743a2000000000000000000000000000000000000000000081525085611f14565b610d386040518060400160405280601a81526020017f62616c616e636573206f662074686520726563697069656e743a000000000000815250600e60008773ffffffffffffffffffffffffffffffffffffffff1673ffffffffffffffffffffffffffffffffffffffff16815260200190815260200160002054611fb0565b8091505092915050565b6000806002600084815260200190815260200160002060009054906101000a900473ffffffffffffffffffffffffffffffffffffffff169050600073ffffffffffffffffffffffffffffffffffffffff168173ffffffffffffffffffffffffffffffffffffffff161415610deb576040517f08c379a0000000000000000000000000000000000000000000000000000000008152600401610de290613b97565b60405180910390fd5b80915050919050565b60606000610e0183610fb1565b67ffffffffffffffff811115610e40577f4e487b7100000000000000000000000000000000000000000000000000000000600052604160045260246000fd5b604051908082528060200260200182016040528015610e6e5781602001602082028036833780820191505090505b5090506000805b610e7e85610fb1565b811015610fa5578473ffffffffffffffffffffffffffffffffffffffff16610ea582610d42565b73ffffffffffffffffffffffffffffffffffffffff161415610f92578573ffffffffffffffffffffffffffffffffffffffff16632f745c5986836040518363ffffffff1660e01b8152600401610efc92919061396f565b60206040518083038186803b158015610f1457600080fd5b505afa158015610f28573d6000803e3d6000fd5b505050506040513d601f19601f82011682018060405250810190610f4c919061344d565b838281518110610f85577f4e487b7100000000000000000000000000000000000000000000000000000000600052603260045260246000fd5b6020026020010181815250505b8080610f9d90614009565b915050610e75565b50819250505092915050565b60008073ffffffffffffffffffffffffffffffffffffffff168273ffffffffffffffffffffffffffffffffffffffff161415611022576040517f08c379a000000000000000000000000000000000000000000000000000000000815260040161101990613b77565b60405180910390fd5b600360008373ffffffffffffffffffffffffffffffffffffffff1673ffffffffffffffffffffffffffffffffffffffff168152602001908152602001600020549050919050565b61107161189c565b73ffffffffffffffffffffffffffffffffffffffff1661108f6110f1565b73ffffffffffffffffffffffffffffffffffffffff16146110e5576040517f08c379a00000000000000000000000000000000000000000000000000000000081526004016110dc90613c37565b60405180910390fd5b6110ef600061204c565b565b6000600760009054906101000a900473ffffffffffffffffffffffffffffffffffffffff16905090565b60606001805461112a90613fa6565b80601f016020809104026020016040519081016040528092919081815260200182805461115690613fa6565b80156111a35780601f10611178576101008083540402835291602001916111a3565b820191906000526020600020905b81548152906001019060200180831161118657829003601f168201915b5050505050905090565b606060008373ffffffffffffffffffffffffffffffffffffffff166370a08231846040518263ffffffff1660e01b81526004016111ea9190613908565b60206040518083038186803b15801561120257600080fd5b505afa158015611216573d6000803e3d6000fd5b505050506040513d601f19601f8201168201806040525081019061123a919061344d565b905061124581612112565b60008167ffffffffffffffff811115611287577f4e487b7100000000000000000000000000000000000000000000000000000000600052604160045260246000fd5b6040519080825280602002602001820160405280156112b55781602001602082028036833780820191505090505b50905060005b8281101561132e576112cc81612112565b6112d685826109a8565b82828151811061130f577f4e487b7100000000000000000000000000000000000000000000000000000000600052603260045260246000fd5b602002602001018181525050808061132690614009565b9150506112bb565b50809250505092915050565b60006001600d8360405161134e91906138cd565b908152602001604051809103902060009054906101000a900460ff1660ff16149050919050565b61138761138061189c565b83836121ab565b5050565b61139c61139661189c565b8361195d565b6113db576040517f08c379a00000000000000000000000000000000000000000000000000000000081526004016113d290613c97565b60405180910390fd5b6113e784848484612318565b50505050565b60606113f882612374565b9050919050565b6060600061140c83610fb1565b67ffffffffffffffff81111561144b577f4e487b7100000000000000000000000000000000000000000000000000000000600052604160045260246000fd5b6040519080825280602002602001820160405280156114795781602001602082028036833780820191505090505b50905060005b61148884610fb1565b811015611572578473ffffffffffffffffffffffffffffffffffffffff16632f745c5985836040518363ffffffff1660e01b81526004016114ca92919061396f565b60206040518083038186803b1580156114e257600080fd5b505afa1580156114f6573d6000803e3d6000fd5b505050506040513d601f19601f8201168201806040525081019061151a919061344d565b828281518110611553577f4e487b7100000000000000000000000000000000000000000000000000000000600052603260045260246000fd5b602002602001018181525050808061156a90614009565b91505061147f565b819250505092915050565b61158561189c565b73ffffffffffffffffffffffffffffffffffffffff166115a36110f1565b73ffffffffffffffffffffffffffffffffffffffff16146115f9576040517f08c379a00000000000000000000000000000000000000000000000000000000081526004016115f090613c37565b60405180910390fd5b6000611605600c611ca2565b9050611611600c611cb0565b61161b83826124c6565b6116258183611ea0565b505050565b6000600560008473ffffffffffffffffffffffffffffffffffffffff1673ffffffffffffffffffffffffffffffffffffffff16815260200190815260200160002060008373ffffffffffffffffffffffffffffffffffffffff1673ffffffffffffffffffffffffffffffffffffffff16815260200190815260200160002060009054906101000a900460ff16905092915050565b6116c661189c565b73ffffffffffffffffffffffffffffffffffffffff166116e46110f1565b73ffffffffffffffffffffffffffffffffffffffff161461173a576040517f08c379a000000000000000000000000000000000000000000000000000000000815260040161173190613c37565b60405180910390fd5b600073ffffffffffffffffffffffffffffffffffffffff168173ffffffffffffffffffffffffffffffffffffffff1614156117aa576040517f08c379a00000000000000000000000000000000000000000000000000000000081526004016117a190613a97565b60405180910390fd5b6117b38161204c565b50565b60007f780e9d63000000000000000000000000000000000000000000000000000000007bffffffffffffffffffffffffffffffffffffffffffffffffffffffff1916827bffffffffffffffffffffffffffffffffffffffffffffffffffffffff191614806118295750611828826124e4565b5b9050919050565b60008073ffffffffffffffffffffffffffffffffffffffff166002600084815260200190815260200160002060009054906101000a900473ffffffffffffffffffffffffffffffffffffffff1673ffffffffffffffffffffffffffffffffffffffff1614159050919050565b600033905090565b816004600083815260200190815260200160002060006101000a81548173ffffffffffffffffffffffffffffffffffffffff021916908373ffffffffffffffffffffffffffffffffffffffff160217905550808273ffffffffffffffffffffffffffffffffffffffff1661191783610d42565b73ffffffffffffffffffffffffffffffffffffffff167f8c5be1e5ebec7d5bd14f71427d1e84f3dd0314c0f7b2291e5b200ac8c7c3b92560405160405180910390a45050565b600061196882611830565b6119a7576040517f08c379a000000000000000000000000000000000000000000000000000000000815260040161199e90613b37565b60405180910390fd5b60006119b283610d42565b90508073ffffffffffffffffffffffffffffffffffffffff168473ffffffffffffffffffffffffffffffffffffffff1614806119f457506119f3818561162a565b5b80611a3257508373ffffffffffffffffffffffffffffffffffffffff16611a1a84610755565b73ffffffffffffffffffffffffffffffffffffffff16145b91505092915050565b8273ffffffffffffffffffffffffffffffffffffffff16611a5b82610d42565b73ffffffffffffffffffffffffffffffffffffffff1614611ab1576040517f08c379a0000000000000000000000000000000000000000000000000000000008152600401611aa890613ab7565b60405180910390fd5b600073ffffffffffffffffffffffffffffffffffffffff168273ffffffffffffffffffffffffffffffffffffffff161415611b21576040517f08c379a0000000000000000000000000000000000000000000000000000000008152600401611b1890613af7565b60405180910390fd5b611b2c8383836125c6565b611b376000826118a4565b6001600360008573ffffffffffffffffffffffffffffffffffffffff1673ffffffffffffffffffffffffffffffffffffffff1681526020019081526020016000206000828254611b879190613ebc565b925050819055506001600360008473ffffffffffffffffffffffffffffffffffffffff1673ffffffffffffffffffffffffffffffffffffffff1681526020019081526020016000206000828254611bde9190613e35565b92505081905550816002600083815260200190815260200160002060006101000a81548173ffffffffffffffffffffffffffffffffffffffff021916908373ffffffffffffffffffffffffffffffffffffffff160217905550808273ffffffffffffffffffffffffffffffffffffffff168473ffffffffffffffffffffffffffffffffffffffff167fddf252ad1be2c89b69c2b068fc378daa952ba7f163c4a11628f55a4df523b3ef60405160405180910390a4611c9d8383836125d6565b505050565b600081600001549050919050565b6001816000016000828254019250508190555050565b600073ffffffffffffffffffffffffffffffffffffffff168273ffffffffffffffffffffffffffffffffffffffff161415611d36576040517f08c379a0000000000000000000000000000000000000000000000000000000008152600401611d2d90613bd7565b60405180910390fd5b611d3f81611830565b15611d7f576040517f08c379a0000000000000000000000000000000000000000000000000000000008152600401611d7690613ad7565b60405180910390fd5b611d8b600083836125c6565b6001600360008473ffffffffffffffffffffffffffffffffffffffff1673ffffffffffffffffffffffffffffffffffffffff1681526020019081526020016000206000828254611ddb9190613e35565b92505081905550816002600083815260200190815260200160002060006101000a81548173ffffffffffffffffffffffffffffffffffffffff021916908373ffffffffffffffffffffffffffffffffffffffff160217905550808273ffffffffffffffffffffffffffffffffffffffff16600073ffffffffffffffffffffffffffffffffffffffff167fddf252ad1be2c89b69c2b068fc378daa952ba7f163c4a11628f55a4df523b3ef60405160405180910390a4611e9c600083836125d6565b5050565b611ea982611830565b611ee8576040517f08c379a0000000000000000000000000000000000000000000000000000000008152600401611edf90613bb7565b60405180910390fd5b80600660008481526020019081526020016000209080519060200190611f0f929190612fa5565b505050565b611fac8282604051602401611f2a9291906139f7565b6040516020818303038152906040527f319af333000000000000000000000000000000000000000000000000000000007bffffffffffffffffffffffffffffffffffffffffffffffffffffffff19166020820180517bffffffffffffffffffffffffffffffffffffffffffffffffffffffff83818316178352505050506125db565b5050565b6120488282604051602401611fc6929190613a27565b6040516020818303038152906040527f9710a9d0000000000000000000000000000000000000000000000000000000007bffffffffffffffffffffffffffffffffffffffffffffffffffffffff19166020820180517bffffffffffffffffffffffffffffffffffffffffffffffffffffffff83818316178352505050506125db565b5050565b6000600760009054906101000a900473ffffffffffffffffffffffffffffffffffffffff16905081600760006101000a81548173ffffffffffffffffffffffffffffffffffffffff021916908373ffffffffffffffffffffffffffffffffffffffff1602179055508173ffffffffffffffffffffffffffffffffffffffff168173ffffffffffffffffffffffffffffffffffffffff167f8be0079c531659141344cd1fd0a4f28419497f9722a3daafe3b4186f6b6457e060405160405180910390a35050565b6121a8816040516024016121269190613d17565b6040516020818303038152906040527ff5b1bba9000000000000000000000000000000000000000000000000000000007bffffffffffffffffffffffffffffffffffffffffffffffffffffffff19166020820180517bffffffffffffffffffffffffffffffffffffffffffffffffffffffff83818316178352505050506125db565b50565b8173ffffffffffffffffffffffffffffffffffffffff168373ffffffffffffffffffffffffffffffffffffffff16141561221a576040517f08c379a000000000000000000000000000000000000000000000000000000000815260040161221190613b17565b60405180910390fd5b80600560008573ffffffffffffffffffffffffffffffffffffffff1673ffffffffffffffffffffffffffffffffffffffff16815260200190815260200160002060008473ffffffffffffffffffffffffffffffffffffffff1673ffffffffffffffffffffffffffffffffffffffff16815260200190815260200160002060006101000a81548160ff0219169083151502179055508173ffffffffffffffffffffffffffffffffffffffff168373ffffffffffffffffffffffffffffffffffffffff167f17307eab39ab6107e8899845ad3d59bd9653f200f220920489ca2b5937696c318360405161230b91906139ba565b60405180910390a3505050565b612323848484611a3b565b61232f84848484612604565b61236e576040517f08c379a000000000000000000000000000000000000000000000000000000000815260040161236590613a77565b60405180910390fd5b50505050565b606061237f82611830565b6123be576040517f08c379a00000000000000000000000000000000000000000000000000000000081526004016123b590613bf7565b60405180910390fd5b60006006600084815260200190815260200160002080546123de90613fa6565b80601f016020809104026020016040519081016040528092919081815260200182805461240a90613fa6565b80156124575780601f1061242c57610100808354040283529160200191612457565b820191906000526020600020905b81548152906001019060200180831161243a57829003601f168201915b50505050509050600061246861279b565b905060008151141561247e5781925050506124c1565b6000825111156124b357808260405160200161249b9291906138e4565b604051602081830303815290604052925050506124c1565b6124bc846127d8565b925050505b919050565b6124e082826040518060200160405280600081525061287f565b5050565b60007f80ac58cd000000000000000000000000000000000000000000000000000000007bffffffffffffffffffffffffffffffffffffffffffffffffffffffff1916827bffffffffffffffffffffffffffffffffffffffffffffffffffffffff191614806125af57507f5b5e139f000000000000000000000000000000000000000000000000000000007bffffffffffffffffffffffffffffffffffffffffffffffffffffffff1916827bffffffffffffffffffffffffffffffffffffffffffffffffffffffff1916145b806125bf57506125be826128da565b5b9050919050565b6125d1838383612944565b505050565b505050565b60008151905060006a636f6e736f6c652e6c6f679050602083016000808483855afa5050505050565b60006126258473ffffffffffffffffffffffffffffffffffffffff16612a58565b1561278e578373ffffffffffffffffffffffffffffffffffffffff1663150b7a0261264e61189c565b8786866040518563ffffffff1660e01b81526004016126709493929190613923565b602060405180830381600087803b15801561268a57600080fd5b505af19250505080156126bb57506040513d601f19601f820116820180604052508101906126b891906133ba565b60015b61273e573d80600081146126eb576040519150601f19603f3d011682016040523d82523d6000602084013e6126f0565b606091505b50600081511415612736576040517f08c379a000000000000000000000000000000000000000000000000000000000815260040161272d90613a77565b60405180910390fd5b805181602001fd5b63150b7a0260e01b7bffffffffffffffffffffffffffffffffffffffffffffffffffffffff1916817bffffffffffffffffffffffffffffffffffffffffffffffffffffffff191614915050612793565b600190505b949350505050565b60606040518060400160405280600781526020017f697066733a2f2f00000000000000000000000000000000000000000000000000815250905090565b60606127e382611830565b612822576040517f08c379a000000000000000000000000000000000000000000000000000000000815260040161281990613c57565b60405180910390fd5b600061282c61279b565b9050600081511161284c5760405180602001604052806000815250612877565b8061285684612a7b565b6040516020016128679291906138e4565b6040516020818303038152906040525b915050919050565b6128898383611cc6565b6128966000848484612604565b6128d5576040517f08c379a00000000000000000000000000000000000000000000000000000000081526004016128cc90613a77565b60405180910390fd5b505050565b60007f01ffc9a7000000000000000000000000000000000000000000000000000000007bffffffffffffffffffffffffffffffffffffffffffffffffffffffff1916827bffffffffffffffffffffffffffffffffffffffffffffffffffffffff1916149050919050565b61294f838383612c28565b600073ffffffffffffffffffffffffffffffffffffffff168373ffffffffffffffffffffffffffffffffffffffff1614156129925761298d81612c2d565b6129d1565b8173ffffffffffffffffffffffffffffffffffffffff168373ffffffffffffffffffffffffffffffffffffffff16146129d0576129cf8382612c76565b5b5b600073ffffffffffffffffffffffffffffffffffffffff168273ffffffffffffffffffffffffffffffffffffffff161415612a1457612a0f81612de3565b612a53565b8273ffffffffffffffffffffffffffffffffffffffff168273ffffffffffffffffffffffffffffffffffffffff1614612a5257612a518282612f26565b5b5b505050565b6000808273ffffffffffffffffffffffffffffffffffffffff163b119050919050565b60606000821415612ac3576040518060400160405280600181526020017f30000000000000000000000000000000000000000000000000000000000000008152509050612c23565b600082905060005b60008214612af5578080612ade90614009565b915050600a82612aee9190613e8b565b9150612acb565b60008167ffffffffffffffff811115612b37577f4e487b7100000000000000000000000000000000000000000000000000000000600052604160045260246000fd5b6040519080825280601f01601f191660200182016040528015612b695781602001600182028036833780820191505090505b5090505b60008514612c1c57600182612b829190613ebc565b9150600a85612b919190614052565b6030612b9d9190613e35565b60f81b818381518110612bd9577f4e487b7100000000000000000000000000000000000000000000000000000000600052603260045260246000fd5b60200101907effffffffffffffffffffffffffffffffffffffffffffffffffffffffffffff1916908160001a905350600a85612c159190613e8b565b9450612b6d565b8093505050505b919050565b505050565b600a80549050600b600083815260200190815260200160002081905550600a81908060018154018082558091505060019003906000526020600020016000909190919091505550565b60006001612c8384610fb1565b612c8d9190613ebc565b9050600060096000848152602001908152602001600020549050818114612d72576000600860008673ffffffffffffffffffffffffffffffffffffffff1673ffffffffffffffffffffffffffffffffffffffff168152602001908152602001600020600084815260200190815260200160002054905080600860008773ffffffffffffffffffffffffffffffffffffffff1673ffffffffffffffffffffffffffffffffffffffff168152602001908152602001600020600084815260200190815260200160002081905550816009600083815260200190815260200160002081905550505b6009600084815260200190815260200160002060009055600860008573ffffffffffffffffffffffffffffffffffffffff1673ffffffffffffffffffffffffffffffffffffffff16815260200190815260200160002060008381526020019081526020016000206000905550505050565b60006001600a80549050612df79190613ebc565b90506000600b60008481526020019081526020016000205490506000600a8381548110612e4d577f4e487b7100000000000000000000000000000000000000000000000000000000600052603260045260246000fd5b9060005260206000200154905080600a8381548110612e95577f4e487b7100000000000000000000000000000000000000000000000000000000600052603260045260246000fd5b906000526020600020018190555081600b600083815260200190815260200160002081905550600b600085815260200190815260200160002060009055600a805480612f0a577f4e487b7100000000000000000000000000000000000000000000000000000000600052603160045260246000fd5b6001900381819060005260206000200160009055905550505050565b6000612f3183610fb1565b905081600860008573ffffffffffffffffffffffffffffffffffffffff1673ffffffffffffffffffffffffffffffffffffffff168152602001908152602001600020600083815260200190815260200160002081905550806009600084815260200190815260200160002081905550505050565b828054612fb190613fa6565b90600052602060002090601f016020900481019282612fd3576000855561301a565b82601f10612fec57805160ff191683800117855561301a565b8280016001018555821561301a579182015b82811115613019578251825591602001919060010190612ffe565b5b509050613027919061302b565b5090565b5b8082111561304457600081600090555060010161302c565b5090565b600061305b61305684613d57565b613d32565b90508281526020810184848401111561307357600080fd5b61307e848285613f64565b509392505050565b600061309961309484613d88565b613d32565b9050828152602081018484840111156130b157600080fd5b6130bc848285613f64565b509392505050565b6000813590506130d381614736565b92915050565b6000813590506130e88161474d565b92915050565b6000813590506130fd81614764565b92915050565b60008151905061311281614764565b92915050565b600082601f83011261312957600080fd5b8135613139848260208601613048565b91505092915050565b600082601f83011261315357600080fd5b8135613163848260208601613086565b91505092915050565b60008135905061317b8161477b565b92915050565b6000815190506131908161477b565b92915050565b6000602082840312156131a857600080fd5b60006131b6848285016130c4565b91505092915050565b600080604083850312156131d257600080fd5b60006131e0858286016130c4565b92505060206131f1858286016130c4565b9150509250929050565b60008060006060848603121561321057600080fd5b600061321e868287016130c4565b935050602061322f868287016130c4565b92505060406132408682870161316c565b9150509250925092565b6000806000806080858703121561326057600080fd5b600061326e878288016130c4565b945050602061327f878288016130c4565b93505060406132908782880161316c565b925050606085013567ffffffffffffffff8111156132ad57600080fd5b6132b987828801613118565b91505092959194509250565b600080604083850312156132d857600080fd5b60006132e6858286016130c4565b92505060206132f7858286016130d9565b9150509250929050565b6000806040838503121561331457600080fd5b6000613322858286016130c4565b925050602083013567ffffffffffffffff81111561333f57600080fd5b61334b85828601613142565b9150509250929050565b6000806040838503121561336857600080fd5b6000613376858286016130c4565b92505060206133878582860161316c565b9150509250929050565b6000602082840312156133a357600080fd5b60006133b1848285016130ee565b91505092915050565b6000602082840312156133cc57600080fd5b60006133da84828501613103565b91505092915050565b6000602082840312156133f557600080fd5b600082013567ffffffffffffffff81111561340f57600080fd5b61341b84828501613142565b91505092915050565b60006020828403121561343657600080fd5b60006134448482850161316c565b91505092915050565b60006020828403121561345f57600080fd5b600061346d84828501613181565b91505092915050565b600061348283836138af565b60208301905092915050565b61349781613ef0565b82525050565b60006134a882613dc9565b6134b28185613df7565b93506134bd83613db9565b8060005b838110156134ee5781516134d58882613476565b97506134e083613dea565b9250506001810190506134c1565b5085935050505092915050565b61350481613f02565b82525050565b600061351582613dd4565b61351f8185613e08565b935061352f818560208601613f73565b6135388161413f565b840191505092915050565b600061354e82613ddf565b6135588185613e19565b9350613568818560208601613f73565b6135718161413f565b840191505092915050565b600061358782613ddf565b6135918185613e2a565b93506135a1818560208601613f73565b80840191505092915050565b60006135ba602b83613e19565b91506135c582614150565b604082019050919050565b60006135dd603283613e19565b91506135e88261419f565b604082019050919050565b6000613600602683613e19565b915061360b826141ee565b604082019050919050565b6000613623602583613e19565b915061362e8261423d565b604082019050919050565b6000613646601c83613e19565b91506136518261428c565b602082019050919050565b6000613669602483613e19565b9150613674826142b5565b604082019050919050565b600061368c601983613e19565b915061369782614304565b602082019050919050565b60006136af602c83613e19565b91506136ba8261432d565b604082019050919050565b60006136d2603883613e19565b91506136dd8261437c565b604082019050919050565b60006136f5602a83613e19565b9150613700826143cb565b604082019050919050565b6000613718602983613e19565b91506137238261441a565b604082019050919050565b600061373b602e83613e19565b915061374682614469565b604082019050919050565b600061375e602083613e19565b9150613769826144b8565b602082019050919050565b6000613781603183613e19565b915061378c826144e1565b604082019050919050565b60006137a4602c83613e19565b91506137af82614530565b604082019050919050565b60006137c7602083613e19565b91506137d28261457f565b602082019050919050565b60006137ea602f83613e19565b91506137f5826145a8565b604082019050919050565b600061380d602183613e19565b9150613818826145f7565b604082019050919050565b6000613830603183613e19565b915061383b82614646565b604082019050919050565b6000613853601383613e19565b915061385e82614695565b602082019050919050565b6000613876602c83613e19565b9150613881826146be565b604082019050919050565b6000613899600f83613e19565b91506138a48261470d565b602082019050919050565b6138b881613f5a565b82525050565b6138c781613f5a565b82525050565b60006138d9828461357c565b915081905092915050565b60006138f0828561357c565b91506138fc828461357c565b91508190509392505050565b600060208201905061391d600083018461348e565b92915050565b6000608082019050613938600083018761348e565b613945602083018661348e565b61395260408301856138be565b8181036060830152613964818461350a565b905095945050505050565b6000604082019050613984600083018561348e565b61399160208301846138be565b9392505050565b600060208201905081810360008301526139b2818461349d565b905092915050565b60006020820190506139cf60008301846134fb565b92915050565b600060208201905081810360008301526139ef8184613543565b905092915050565b60006040820190508181036000830152613a118185613543565b9050613a20602083018461348e565b9392505050565b60006040820190508181036000830152613a418185613543565b9050613a5060208301846138be565b9392505050565b60006020820190508181036000830152613a70816135ad565b9050919050565b60006020820190508181036000830152613a90816135d0565b9050919050565b60006020820190508181036000830152613ab0816135f3565b9050919050565b60006020820190508181036000830152613ad081613616565b9050919050565b60006020820190508181036000830152613af081613639565b9050919050565b60006020820190508181036000830152613b108161365c565b9050919050565b60006020820190508181036000830152613b308161367f565b9050919050565b60006020820190508181036000830152613b50816136a2565b9050919050565b60006020820190508181036000830152613b70816136c5565b9050919050565b60006020820190508181036000830152613b90816136e8565b9050919050565b60006020820190508181036000830152613bb08161370b565b9050919050565b60006020820190508181036000830152613bd08161372e565b9050919050565b60006020820190508181036000830152613bf081613751565b9050919050565b60006020820190508181036000830152613c1081613774565b9050919050565b60006020820190508181036000830152613c3081613797565b9050919050565b60006020820190508181036000830152613c50816137ba565b9050919050565b60006020820190508181036000830152613c70816137dd565b9050919050565b60006020820190508181036000830152613c9081613800565b9050919050565b60006020820190508181036000830152613cb081613823565b9050919050565b60006020820190508181036000830152613cd081613846565b9050919050565b60006020820190508181036000830152613cf081613869565b9050919050565b60006020820190508181036000830152613d108161388c565b9050919050565b6000602082019050613d2c60008301846138be565b92915050565b6000613d3c613d4d565b9050613d488282613fd8565b919050565b6000604051905090565b600067ffffffffffffffff821115613d7257613d71614110565b5b613d7b8261413f565b9050602081019050919050565b600067ffffffffffffffff821115613da357613da2614110565b5b613dac8261413f565b9050602081019050919050565b6000819050602082019050919050565b600081519050919050565b600081519050919050565b600081519050919050565b6000602082019050919050565b600082825260208201905092915050565b600082825260208201905092915050565b600082825260208201905092915050565b600081905092915050565b6000613e4082613f5a565b9150613e4b83613f5a565b9250827fffffffffffffffffffffffffffffffffffffffffffffffffffffffffffffffff03821115613e8057613e7f614083565b5b828201905092915050565b6000613e9682613f5a565b9150613ea183613f5a565b925082613eb157613eb06140b2565b5b828204905092915050565b6000613ec782613f5a565b9150613ed283613f5a565b925082821015613ee557613ee4614083565b5b828203905092915050565b6000613efb82613f3a565b9050919050565b60008115159050919050565b60007fffffffff0000000000000000000000000000000000000000000000000000000082169050919050565b600073ffffffffffffffffffffffffffffffffffffffff82169050919050565b6000819050919050565b82818337600083830152505050565b60005b83811015613f91578082015181840152602081019050613f76565b83811115613fa0576000848401525b50505050565b60006002820490506001821680613fbe57607f821691505b60208210811415613fd257613fd16140e1565b5b50919050565b613fe18261413f565b810181811067ffffffffffffffff8211171561400057613fff614110565b5b80604052505050565b600061401482613f5a565b91507fffffffffffffffffffffffffffffffffffffffffffffffffffffffffffffffff82141561404757614046614083565b5b600182019050919050565b600061405d82613f5a565b915061406883613f5a565b925082614078576140776140b2565b5b828206905092915050565b7f4e487b7100000000000000000000000000000000000000000000000000000000600052601160045260246000fd5b7f4e487b7100000000000000000000000000000000000000000000000000000000600052601260045260246000fd5b7f4e487b7100000000000000000000000000000000000000000000000000000000600052602260045260246000fd5b7f4e487b7100000000000000000000000000000000000000000000000000000000600052604160045260246000fd5b6000601f19601f8301169050919050565b7f455243373231456e756d657261626c653a206f776e657220696e646578206f7560008201527f74206f6620626f756e6473000000000000000000000000000000000000000000602082015250565b7f4552433732313a207472616e7366657220746f206e6f6e20455243373231526560008201527f63656976657220696d706c656d656e7465720000000000000000000000000000602082015250565b7f4f776e61626c653a206e6577206f776e657220697320746865207a65726f206160008201527f6464726573730000000000000000000000000000000000000000000000000000602082015250565b7f4552433732313a207472616e736665722066726f6d20696e636f72726563742060008201527f6f776e6572000000000000000000000000000000000000000000000000000000602082015250565b7f4552433732313a20746f6b656e20616c7265616479206d696e74656400000000600082015250565b7f4552433732313a207472616e7366657220746f20746865207a65726f2061646460008201527f7265737300000000000000000000000000000000000000000000000000000000602082015250565b7f4552433732313a20617070726f766520746f2063616c6c657200000000000000600082015250565b7f4552433732313a206f70657261746f7220717565727920666f72206e6f6e657860008201527f697374656e7420746f6b656e0000000000000000000000000000000000000000602082015250565b7f4552433732313a20617070726f76652063616c6c6572206973206e6f74206f7760008201527f6e6572206e6f7220617070726f76656420666f7220616c6c0000000000000000602082015250565b7f4552433732313a2062616c616e636520717565727920666f7220746865207a6560008201527f726f206164647265737300000000000000000000000000000000000000000000602082015250565b7f4552433732313a206f776e657220717565727920666f72206e6f6e657869737460008201527f656e7420746f6b656e0000000000000000000000000000000000000000000000602082015250565b7f45524337323155524953746f726167653a2055524920736574206f66206e6f6e60008201527f6578697374656e7420746f6b656e000000000000000000000000000000000000602082015250565b7f4552433732313a206d696e7420746f20746865207a65726f2061646472657373600082015250565b7f45524337323155524953746f726167653a2055524920717565727920666f722060008201527f6e6f6e6578697374656e7420746f6b656e000000000000000000000000000000602082015250565b7f4552433732313a20617070726f76656420717565727920666f72206e6f6e657860008201527f697374656e7420746f6b656e0000000000000000000000000000000000000000602082015250565b7f4f776e61626c653a2063616c6c6572206973206e6f7420746865206f776e6572600082015250565b7f4552433732314d657461646174613a2055524920717565727920666f72206e6f60008201527f6e6578697374656e7420746f6b656e0000000000000000000000000000000000602082015250565b7f4552433732313a20617070726f76616c20746f2063757272656e74206f776e6560008201527f7200000000000000000000000000000000000000000000000000000000000000602082015250565b7f4552433732313a207472616e736665722063616c6c6572206973206e6f74206f60008201527f776e6572206e6f7220617070726f766564000000000000000000000000000000602082015250565b7f4e465420616c7265616479206d696e7465642100000000000000000000000000600082015250565b7f455243373231456e756d657261626c653a20676c6f62616c20696e646578206f60008201527f7574206f6620626f756e64730000000000000000000000000000000000000000602082015250565b7f4e65656420746f20706179207570210000000000000000000000000000000000600082015250565b61473f81613ef0565b811461474a57600080fd5b50565b61475681613f02565b811461476157600080fd5b50565b61476d81613f0e565b811461477857600080fd5b50565b61478481613f5a565b811461478f57600080fd5b5056fea2646970667358221220b8bf0356d0cbc6e0dcf059572e7657ea3befc3e103eb10f38f799876f12db36164736f6c63430008040033",
  "linkReferences": {},
  "deployedLinkReferences": {}
}